:020000040800F2
:1000000000000220A9450008B9440008BB440008CC
:10001000BD440008BF440008C144000800000000BF
:100020000000000000000000000000003121000876
:10003000C344000800000000D1210008C5440008A6
:10004000F9450008F9450008F9450008F945000898
:10005000F9450008F9450008F9450008F945000888
:10006000F9450008F9450008F9450008F945000878
:10007000F9450008F9450008F9450008F945000868
:10008000F9450008F9450008F9450008CD44000885
:10009000DD440008ED440008FD440008F94500086F
:1000A000F94500080D450008F9450008F945000824
:1000B000F9450008F9450008F9450008F945000828
:1000C000F9450008F9450008F9450008F945000818
:1000D000F9450008F9450008F9450008F945000808
:1000E000F9450008F9450008F9450008F9450008F8
:1000F000F9450008F9450008F9450008F9450008E8
:10010000F9450008F9450008F9450008F9450008D7
:10011000F9450008F9450008F9450008F9450008C7
:10012000F9450008F9450008F9450008F9450008B7
:10013000F945000800000000000000001D4500080F
:100140002D4500083D4500084D450008F9450008CB
:10015000F9450008F9450008F9450008F945000887
:10016000F9450008F9450008F9450008F945000877
:10017000F9450008F9450008F945000800000000AD
:1001800000000000F9450008000000000000000029
:10019000F94500080000000000000000F9450008D3
:1001A000000000000000000000000000F945000809
:1001B000F9450008F9450008F9450008F945000827
:0401C000F9450008F5
:1001D00010B5054C237833B9044B13B10448AFF381
:1001E00000800123237010BD780000200000000073
:1001F0003C47000808B5034B1BB103490348AFF364
:10020000008008BD000000007C0000203C47000882
:1002100053B94AB9002908BF00281CBF4FF0FF316D
:100220004FF0FF3000F072B9ADF1080C6DE904CE6B
:1002300000F006F8DDF804E0DDE9022304B07047C1
:100240002DE9F047089E04468846002B4BD18A4290
:10025000154667D9B2FA82F24AB1C2F1200701FA13
:1002600002F320FA07F7954047EA030894404FEA63
:10027000154E230CB8FBFEF71FFA85FC0EFB178802
:1002800043EA084307FB0CF1994209D9EB1807F13F
:10029000FF3080F01B81994240F21881023F2B44CD
:1002A0005B1AA4B2B3FBFEF00EFB103344EA034426
:1002B00000FB0CFCA44509D92C1900F1FF3380F098
:1002C0000781A44540F2048102382C4440EA0740EB
:1002D000A4EB0C0400271EB1D4400023C6E9004360
:1002E0003946BDE8F0878B4209D9002E00F0EB803B
:1002F0000027C6E9000138463946BDE8F087B3FA61
:1003000083F7002F47D18B4202D3824200F2FA805A
:10031000841A61EB030301209846002EE0D0C6E961
:100320000048DDE702B9FFDEB2FA82F2002A40F0AF
:100330008F80491B4FEA154E1FFA85F80127B1FB44
:10034000FEFC230C0EFB1C1143EA014308FB0CF1DD
:10035000994207D9EB180CF1FF3002D2994200F212
:10036000CD808446591AA3B2B1FBFEF00EFB1014E7
:1003700043EA044408FB00F8A04507D92C1900F112
:10038000FF3302D2A04500F2B6801846A4EB080461
:1003900040EA0C409FE7C7F1200CBB4022FA0CFE5C
:1003A0004EEA030E01FA07F420FA0CF521FA0CF3D9
:1003B0004FEA1E482543B3FBF8F92C0C08FB193310
:1003C0001FFA8EFA44EA034309FB0AF49C4202FA3C
:1003D00007F200FA07F10BD91EEB030309F1FF3016
:1003E00080F087809C4240F28480A9F10209734426
:1003F0001B1BADB2B3FBF8F008FB103345EA034416
:1004000000FB0AFAA24508D91EEB040400F1FF33F1
:100410006BD2A24569D90238744440EA0940A0FB76
:100420000289A4EB0A044C45C2464B4654D351D032
:10043000002E69D0B1EB0A0564EB030404FA0CFC4E
:10044000FD40FC404CEA0505C6E90054002747E79B
:10045000C2F1200320FA03F7954001FA02F021FAD5
:1004600003F34FEA154E3843010CB3FBFEF71FFAB6
:1004700085F80EFB173341EA034107FB08F38B4273
:1004800004FA02F407D9691807F1FF3C2FD28B4216
:100490002DD9023F2944CB1A81B2B3FBFEF00EFBEB
:1004A000103341EA034100FB08F38B4207D9691876
:1004B00000F1FF3C17D28B4215D902382944C91AE2
:1004C00040EA07473BE73746304609E70746E7E695
:1004D0001846FBE64145ABD2B8EB020A69EB0E02C7
:1004E00001381346A4E76046E9E7184695E76746F2
:1004F000D1E781467CE702382C4447E7ACF1020C97
:100500002B442FE7384608E73746E9E6704700BF37
:1005100008B50B4B1A6842F400721A601A6842F46C
:1005200080621A601A6842F480721A60032000F038
:10053000EDFB002003F082FF03F0CCFE002008BD9D
:10054000003C0240034A1168034B1B780B441360C4
:10055000704700BF344C002000000020014B186899
:10056000704700BF344C0020002800F0A18038B54F
:10057000044690F82030D3B12268136823F00203B8
:100580001360FFF7EBFF054623685A6812F0020F6D
:1005900010D0FFF7E3FF401B0A28F5D9636A43F444
:1005A00000336362052384F82030012038BD03F056
:1005B000DBFEE1E71A6842F001021A60FFF7CEFFA6
:1005C000054623685A6812F0010F0DD1FFF7C6FFE8
:1005D000401B0A28F5D9636A43F40033636205239C
:1005E00084F820300120E1E7227E012A3DD01A68FC
:1005F00022F080021A60637E012B3BD022681368D0
:1006000023F040031360A37E012B39D022681368C6
:1006100023F020031360E37E012B37D02268136898
:1006200043F010031360237F012B35D02268136839
:1006300023F008031360637F012B33D02268136813
:1006400023F004031360A368E26813432269134391
:10065000626913436268013A21681343CB61002049
:100660006062012384F82030A0E71A6842F080021B
:100670001A60C0E72268136843F040031360C2E7C2
:100680002268136843F020031360C4E722681368EC
:1006900023F010031360C6E72268136843F00803D1
:1006A0001360C8E72268136843F004031360CAE7C5
:1006B0000120704790F82030DBB2012B0AD090F86F
:1006C0002030DBB2022B05D0436A43F4802343621F
:1006D0000120704770B4424BD3F8002242F001026F
:1006E000C3F80022D3F8002222F47C52C3F800227F
:1006F000D3F80022486A42EA0022C3F800224A697D
:10070000012000FA02F2D3F81C42D0430440C3F89F
:100710001C42CB69B3B9324BD3F80C420440C3F846
:100720000C42CE688D884C6945EA0645483443F84A
:1007300034508E680C884D6944EA0644483503EB12
:10074000C5035C60CB69012B1DD08B69002B32D1B6
:10075000234CD4F804320340C4F804320B698BBB39
:100760001F4BD3F814422040C3F814020B6A012B2C
:100770002FD01B4AD2F8003223F00103C2F8003216
:10078000002070BC7047164BD3F80C421443C3F8DA
:100790000C420E688D884C6945EA0645483443F89A
:1007A00034508E688C894D6944EA0644483503EB21
:1007B000C5035C60C9E70A4CD4F804321343C4F89B
:1007C0000432CBE70648D0F814321343C0F8143291
:1007D000CCE70349D1F81C321A43C1F81C22C8E700
:1007E0000064004038B590F82030DBB2012B05D012
:1007F000436A43F400234362012038BD04460223C8
:1008000080F820300268136823F001031360FFF7BB
:10081000A5FE054623685B6813F0010F0DD0FFF7B6
:100820009DFE401B0A28F5D9636A43F400336362D6
:10083000052384F820300120DFE700206062DCE738
:1008400070B490F82040E4B2012C0AD090F8204017
:10085000E4B2022C05D0436A43F4802343620120B2
:100860004DE00468A56815F0806F07D1A56815F004
:10087000006F03D1A56815F0805F55D0A468C4F35C
:1008800001640125A5401D608B68002B39D10E68DD
:10089000CB68056843EA465604F118031B01EE5085
:1008A00003680D6904F1180603EB06135D600B7D08
:1008B000012B31D0D17993791B0443EA016351793B
:1008C00043EA0123157901682B4325012944C1F826
:1008D0008C31D17893781B0443EA0163517843EA61
:1008E0000123117802680B432A44C2F88831026858
:1008F00018342401135943F001031351002070BC34
:1009000070474D6843EAC503CD6806682B4304F180
:1009100018052D017351C3E7036803EB06135968EB
:1009200041F480715960C5E7436A43F400134362A0
:100930000120E4E730B490F82040E4B2012C0BD061
:1009400090F82040E4B2022C06D0436A43F480239E
:100950004362012030BC704751B90468E46814F068
:10096000030F07D1436A43F4001343620120F1E708
:1009700001295DD0056801F11B0424012C5904F004
:1009800004049460002C5ED1056801F11B0424016D
:100990002C59640D1460056801F11B0424012D59C4
:1009A000C5F34005D560056825446D6805F00F0561
:1009B0001561056825446D68C5F3072595610568CF
:1009C0002C446468240C546104680A011444D4F86B
:1009D000B8411C7004681444D4F8B841240A5C700F
:1009E00004681444D4F8B841240C9C70046814447E
:1009F000D4F8B841240EDC7004681444D4F8BC4127
:100A00001C7104681444D4F8BC41240A5C71046865
:100A10001444D4F8BC41240C9C7104682244D2F8DC
:100A2000BC21120EDA71B1B101291BD0002091E76F
:100A30000468246914F0030F9CD1436A43F4001343
:100A40004362012086E7056801F11B0424012C594B
:100A5000E40854609FE70268D36843F02003D36042
:100A6000002077E70268136943F020031361002038
:100A700070E790F82030DBB2012B0AD090F82030DC
:100A8000DBB2022B05D0436A43F48023436201208A
:100A900070470268536919435161002070477047DD
:100AA000704770477047704770477047704770478E
:100AB000704770472DE9F84F054603685C695F6829
:100AC0009E68D3F80C90D3F81080D3F818A014F0D7
:100AD000010F5AD016F0010F17D001229A6016F0BC
:100AE000020F08D116F0040F30D116F0080F07D00E
:100AF0004FF4805B0BE0FFF7D2FF4FF0000B06E0F6
:100B0000FFF7D0FF4FF0000B01E04FF0000B16F4A1
:100B1000807F0BD02B684FF480729A6016F4007FB0
:100B200017D116F4806F18D04BF4005B16F4803F99
:100B30002DD02B684FF480329A6016F4003F16D106
:100B400016F4802F17D04BF4004B20E04FF4006BCD
:100B5000DDE72846FFF7A4FFE8E716F4006F02D0B0
:100B60004BF4804BE2E72846FFF79DFFDEE728467F
:100B7000FFF797FF0BE016F4002F02D04BF4803BF9
:100B800005E02846FFF790FF01E04FF0000B14F05E
:100B9000080F07D019F0100F04D04BF4007B2B681E
:100BA0001022DA6014F0040F02D019F0080F60D19F
:100BB00014F0020F04D02B68DB6813F0030F5FD131
:100BC00014F0400F07D018F0100F04D04BF4806BD6
:100BD0002B6810221A6114F0200F02D018F0080FB1
:100BE00052D114F0100F04D02B681B6913F0030FBF
:100BF00051D114F4003F02D017F0100F4FD114F46C
:100C0000803F02D017F0080F50D114F4004F67D086
:100C100017F0040F61D014F4807F04D01AF0010F94
:100C200001D04BF0010B14F4007F04D01AF0020F36
:100C300001D04BF0020B14F4806F04D01AF0040FB3
:100C400001D04BF0040B14F4006F46D01AF0700A78
:100C500043D0BAF1300F48D02FD9BAF1500F47D056
:100C6000BAF1600F47D0BAF1400F31D14BF0400BD1
:100C70002EE02B680822DA602846FFF716FF97E778
:100C8000284603F0DFF99BE72B6808221A61284603
:100C9000FFF70CFFA5E7284603F032FAA9E72B6817
:100CA00010225A602846FFF702FFA8E72B680822A7
:100CB0005A602846FFF7FCFEA7E7BAF1100F05D0EF
:100CC000BAF1200F04D14BF0100B01E04BF0080BF0
:100CD0002A68936923F0700393612B6804225A6099
:100CE000BBF1000F0AD1BDE8F88F4BF0200BEFE706
:100CF0004BF0800BECE74BF4807BE9E76B6A43EA4F
:100D00000B036B622846FFF7D4FEECE7074AD36873
:100D100023F4E0631B041B0C000200F4E0601843A2
:100D200040F0BF6040F40030D060704700ED00E05C
:100D300030B4174BDB68C3F30223C3F10704042C60
:100D400028BF04241D1D062D18D9033B4FF0FF3585
:100D500005FA04F421EA0401994005FA03F322EAB2
:100D60000303194300280BDB0901C9B200F16040FD
:100D700000F5614080F8001330BC70470023E5E7C0
:100D800000F00F000901C9B2024B1954F4E700BF8B
:100D900000ED00E014ED00E000F01F024009012327
:100DA0009340024A42F82030704700BF00E100E063
:100DB0000138B0F1807F0AD2064B5860064AF02114
:100DC00082F823100020986007221A6070470120E3
:100DD000704700BF10E000E000ED00E0042805D0FF
:100DE000054A136823F0040313607047024A13682E
:100DF00043F004031360704710E000E000230F2B62
:100E000000F2D180F0B482B039E0062200E0002286
:100E1000B2403A430234644E46F82420634A1468D0
:100E2000EA4302EA04064F6817F4803F01D045EA1E
:100E300004065E4C2660646802EA04064F6817F4F4
:100E4000003F01D045EA0406584C6660A46802EAF7
:100E500004064F6817F4801F01D045EA0406534C7E
:100E6000A660E46822404E6816F4001F01D045EAEF
:100E700004024E4CE26001330F2B00F291800122FC
:100E80009A400C6804EA0205AA42F4D14C68022C8C
:100E900001D0122C10D1DE08083650F826C003F01D
:100EA0000704A7000F24BC402CEA040C0C69BC40CA
:100EB00044EA0C0440F8264004685F000326BE4064
:100EC000F64306EA040C4C6804F00304BC4044EA10
:100ED0000C0404604C6804F1FF3CBCF1010F03D921
:100EE000112C01D0122C10D1846806EA040CCC68B5
:100EF000BC4044EA0C048460446824EA02024C6862
:100F0000C4F300149C4014434460C26816408A68CD
:100F1000BA403243C2604A6812F0805FABD0002210
:100F20000192234A546C44F480445464526C02F499
:100F300080420192019A9C08A61C1B4A52F8267016
:100F400003F0030296000F22B24027EA0207194A73
:100F500090423FF45CAF02F58062904216D002F5F9
:100F60008062904214D002F58062904212D002F565
:100F70008062904210D002F5806290420ED002F55D
:100F8000806290423FF441AF072241E701223FE7F0
:100F900002223DE703223BE7042239E7052237E737
:100FA00002B0F0BC7047704700380140003C01407F
:100FB0000038024000000240002800F09D8070B51B
:100FC00004464F4B1B6803F00F038B4209D2CBB290
:100FD0004B4A1370136803F00F038B4201D00120BA
:100FE00070BD236813F0020F17D013F0040F04D064
:100FF000444A936843F4E0539360236813F0080F66
:1010000004D0404A936843F4604393603D4A936838
:1010100023F0F003A068034393600D46236813F0A8
:10102000010F32D06368012B21D09A1E012A25D9E5
:10103000344A126812F0020F60D032498A6822F0F6
:10104000030213438B60FFF789FA06462D4B9B681A
:1010500003F00C036268B3EB820F16D0FFF77EFA41
:10106000801B41F288339842F0D90320B8E7254A23
:10107000126812F4003FE0D10120B1E7214A126862
:1010800012F0007FD9D10120AAE71D4B1B6803F0A5
:101090000F03AB4209D9EAB2194B1A701B6803F06F
:1010A0000F03AB4201D001209AE7236813F0040F2D
:1010B00006D0144A936823F4E053E1680B4393602D
:1010C000236813F0080F07D00E4A936823F4604397
:1010D000216943EAC103936000F04EF8094B9B6815
:1010E000C3F30313084AD35CD840084B18600020B0
:1010F00003F0A4F9002073E70120704701206FE797
:10110000003C024000380240684700080C00002004
:10111000014B1868704700BF0C00002008B5FFF7AE
:10112000F7FF044B9B68C3F34233034AD35CD840B8
:1011300008BD00BF00380240784700080F23036055
:101140000B4B9A6802F0030242609A6802F0F002C8
:1011500082609A6802F4E052C2609B68DB0803F484
:10116000E0530361034B1B6803F00F030B607047F0
:1011700000380240003C02402DE9F04B444B9B6894
:1011800003F00C03082B06D00C2B42D0042B7CD090
:101190004048BDE8F08B3E4B5A6802F03F025B6866
:1011A00013F4800F12D03A4B5968C1F38811002311
:1011B0003948A1FB0001FFF72BF8354B5B68C3F3FF
:1011C000014301335B00B0FBF3F0E2E7304B5B68B7
:1011D000C3F388131E4600275C010025E41A65EB63
:1011E0000705A90141EA9461A001001B61EB05011B
:1011F000CB0043EA5073C400A01943EB07018B02F4
:1012000043EA90538402204619460023FFF700F872
:10121000D3E71F4B5A6802F03F025B6813F4800F5C
:1012200010D01B4B5968C1F3881100231A48A1FB49
:101230000001FEF7EDFF164B5B68C3F30273B0FBD2
:10124000F3F0A6E7124B5B68C3F388131E46002732
:101250005C010025E41A65EB0705A90141EA9461E8
:10126000A001001B61EB0501CB0043EA5073C400F1
:10127000A01943EB07018B0243EA905384022046F6
:1012800019460023FEF7C4FFD5E7034881E700BFF6
:10129000003802400024F40040787D0170B582B02F
:1012A0000446036813F0010F41D0A64B9B6803F07E
:1012B0000C03042B32D0A34B9B6803F00C03082BC8
:1012C00027D0A04B9B6803F00C030C2B59D063680C
:1012D000B3F5803F5BD0B3F5A02F5ED0994B1A6871
:1012E00022F480321A601A6822F480221A6063683D
:1012F000002B5CD0FFF732F90546924B1B6813F4C4
:10130000003F14D1FFF72AF9401B6428F5D90320C8
:101310009DE18C4B5B6813F4800FD2D0894B1B6826
:1013200013F4003F03D06368002B00F08D81236825
:1013300013F0020F67D0834B9B6813F00C0F4AD059
:10134000804B9B6803F00C03082B3FD07D4B9B68C0
:1013500003F00C030C2B48D0E368002B74D07A4BBD
:1013600001221A60FFF7FAF80546764B1B6813F066
:10137000020F60D1FFF7F2F8401B0228F5D90320D5
:1013800065E1704B5B6813F4800FA0D0C6E76D4A2F
:10139000136843F480331360A9E76A4B1A6842F478
:1013A00080221A601A6842F480321A609FE7FFF7C1
:1013B000D5F80546634B1B6813F4003FB7D0FFF721
:1013C000CDF8401B6428F5D9032040E15D4B5B68F4
:1013D00013F4800FBAD15B4B1B6813F0020F0AD0D5
:1013E000E368012B07D0012031E1564B5B6813F411
:1013F000800FB1D1EFE7534A136823F0F803216956
:1014000043EAC1031360236813F0080F40D06369F7
:1014100063B34E4B01221A60FFF7A0F80546494B13
:101420005B6F13F0020F33D1FFF798F8401B0228CF
:10143000F5D903200BE1434A136823F0F80321692F
:1014400043EAC1031360DEE73F4B00221A60FFF757
:1014500085F805463B4B1B6813F0020FD3D0FFF70E
:101460007DF8401B0228F5D90320F0E0374B00221D
:101470001A60FFF773F80546324B5B6F13F0020FEB
:1014800006D0FFF76BF8401B0228F5D90320DEE0F9
:10149000236813F0040F79D02A4B1B6C13F0805F84
:1014A00033D100230193274B1A6C42F080521A6407
:1014B0001B6C03F080530193019B0125244B1B6897
:1014C00013F4807F23D0A368012B34D0052B41D0A7
:1014D0001C4B1A6F22F001021A671A6F22F00402E5
:1014E0001A67A368002B3FD0FFF738F80646154B64
:1014F0001B6F13F0020F48D1FFF730F8801B41F249
:1015000088339842F3D90320A1E00025D6E7104A9A
:10151000136843F480731360FFF720F806460C4B02
:101520001B6813F4807FCED1FFF718F8801B0228C8
:10153000F5D903208BE0034A136F43F001031367CF
:10154000CFE700BF0038024000004742800E47420C
:1015500000700040404B1A6F42F004021A671A6F85
:1015600042F001021A67BCE7FEF7F8FF06463A4B65
:101570001B6F13F0020F08D0FEF7F0FF801B41F243
:1015800088339842F3D9032061E0E5B9A369002BC1
:101590005CD0314A926802F00C02082A59D0022B22
:1015A00017D02E4B00221A60FEF7D8FF04462A4BB4
:1015B0001B6813F0007F45D0FEF7D0FF001B022808
:1015C000F5D9032043E0244A136C23F080531364BD
:1015D000DCE7224B00221A60FEF7C0FF05461E4BD7
:1015E0001B6813F0007F06D0FEF7B8FF401B0228EF
:1015F000F5D903202BE0E369226A1343626A43EAC8
:101600008213A26A5208013A43EA0243E26A43EAB9
:101610000263226B43EA02730F4A53600F4B0122AD
:101620001A60FEF79BFF04460B4B1B6813F0007F0C
:1016300006D1FEF793FF001B0228F5D9032006E030
:10164000002004E0002002E0012000E0002002B0C1
:1016500070BD0120FBE700BF003802406000474238
:1016600070470268D36843F00103D36002681368CF
:1016700043F00103136000207047704770477047C4
:10168000704710B5044603681A6912F0020F11D0B2
:10169000DA6812F0020F0DD06FF002021A61012316
:1016A000037603689B6913F0030F70D0FFF7E6FF22
:1016B0000023237623681A6912F0040F12D0DA6827
:1016C00012F0040F0ED06FF004021A610223237689
:1016D00023689B6913F4407F5FD02046FFF7CEFF5D
:1016E0000023237623681A6912F0080F12D0DA68F3
:1016F00012F0080F0ED06FF008021A61042323764F
:101700002368DB6913F0030F4ED02046FFF7B6FFC6
:101710000023237623681A6912F0100F12D0DA68BA
:1017200012F0100F0ED06FF010021A61082323760A
:101730002368DB6913F4407F3DD02046FFF79EFF0E
:101740000023237623681A6912F0010F03D0DA68A8
:1017500012F0010F36D123681A6912F0800F03D0FE
:10176000DA6812F0800F34D123681A6912F0400F42
:1017700003D0DA6812F0400F32D123681A6912F0F0
:10178000200F03D0DA6812F0200F30D110BDFFF720
:1017900074FF2046FFF773FF8AE72046FFF76DFFCF
:1017A0002046FFF76CFF9BE72046FFF766FF2046C9
:1017B000FFF765FFACE72046FFF75FFF2046FFF726
:1017C0005EFFBDE76FF001021A61204602F0C8FA21
:1017D000C1E76FF080021A61204600F089F8C3E784
:1017E0006FF040021A612046FFF74AFFC5E76FF02D
:1017F00020021A61204600F07AF8C7E703682E4AF3
:10180000904212D0B0F1804F0FD0A2F57C429042AE
:101810000BD002F58062904207D002F580629042C0
:1018200003D002F57842904203D123F070034A6856
:101830001343214A90422AD0B0F1804F27D0A2F51D
:101840007C42904223D002F5806290421FD002F584
:10185000806290421BD002F57842904217D002F588
:101860007052904213D002F5806290420FD002F580
:10187000806290420BD0A2F59832904207D002F5D8
:101880008062904203D002F58062904203D123F43B
:101890004073CA68134303608B68C3620B6883623A
:1018A000054B984203D003F58063984201D10B6940
:1018B000036301234361704700000140A8B110B5E4
:1018C000044690F839305BB1022384F83930211D89
:1018D0002068FFF793FF012384F83930002010BD02
:1018E00080F83830FFF7BCFEEEE701207047704704
:1018F0007047842801D0033070470020704708B536
:1019000000F0C8F9002008BDF0B585B00F46446866
:1019100005680669B0F90800FFF7EBFF03AB019318
:1019200000903B46B2B22946204600F081F90128DA
:1019300002D1039805B0F0BD0020FBE708B50346CF
:1019400000B90123184600F0E7FA002008BD08B5E9
:1019500000F08EFB012801D000F06CFC08BD00F106
:10196000080343604FF0FF328260C36003610023CD
:101970000360704700230361704743684B609A68B7
:101980008A609A6851609960086103680133036056
:10199000704730B40D68B5F1FF3F02D000F1080286
:1019A00002E0026904E01A4653681C68AC42FAD9A6
:1019B00053684B6099608A60516008610368013325
:1019C000036030BC70470369426881689160826837
:1019D000416851605A68824205D00022026118684D
:1019E00001381860704782685A60F6E7074B9B6AB7
:1019F0001B6833B1054B9A6AD268D2685268DA62C2
:101A00007047024B4FF0FF32DA62704794000020BB
:101A100010B50446006B00F077FD204600F074FD21
:101A200010BD2DE9F04780469946089D099F0A9C04
:101A3000266B02F18042013A06EB820626F0070689
:101A400000230F2B07D8C85CE21882F83400CA5C68
:101A50000AB10133F5E7002384F843300F2D00D994
:101A60000F25E56265644FF0000AC4F848A0201D08
:101A7000FFF780FF04F11800FFF77CFF2461C5F138
:101A80001005A5616462C4F84CA084F850A04A46D1
:101A90004146304600F030FB206007B13C60BDE8B5
:101AA000F087000070B5002407E004EB8402930087
:101AB00010481844FFF753FF01340F2CF5D90E4C92
:101AC00004F5B8763046FFF74AFF04F5C27528469C
:101AD000FFF745FF04F11400FFF741FF04F5CC7058
:101AE000FFF73DFF2046FFF73AFFA662C4F8AC516E
:101AF00070BD00BFC40000209400002038B505462A
:101B000000F028FB264BD3F8B0210132C3F8B021F6
:101B1000D3F8B43173B1224BD3F8B8318BB9204B21
:101B2000D3F8B431DA6AEB6A9A420AD81C4BC3F88C
:101B3000B45106E01A4BC3F8B451D3F8B031012BBD
:101B40002AD0174CD4F8BC310133C4F8BC31EB6A4D
:101B500001229A40D4F8C0110A43C4F8C02104F10C
:101B6000300003EB83039A00291D1044FFF705FFA3
:101B700000F012FBD4F8B8316BB1D4F8B431DA6AA2
:101B8000EB6A9A4207D2074B4FF080521A60BFF3BC
:101B90004F8FBFF36F8F38BDFFF784FFD1E700BFD2
:101BA0009400002004ED00E070B504460E461F4B83
:101BB000D3F8C451D3F8B4010430FFF704FF60B97F
:101BC0001A4BD3F8B421D16A012202FA01F1D3F8F9
:101BD000C02122EA0102C3F8C021B4F1FF3F12D0B4
:101BE0002C44124BD3F8B4315C60A54214D80F4D8D
:101BF000A86AD5F8B4110431FFF7CBFEEB6AA34213
:101C000012D9EC6210E0002EEAD00848D0F8B411E6
:101C10000431FFF7B2FE07E0044BD3F8AC01D3F870
:101C2000B4110431FFF7B5FE70BD00BF9400002071
:101C30002DE9F04385B00746884615469946900041
:101C400000F0E8FBF8B10646542000F0E3FB044640
:101C5000A8B10663D4B10023039302940D9B0193B2
:101C60000C9B00934B462A4641463846FFF7D9FE67
:101C70002046FFF743FF012005B0BDE8F083304662
:101C800000F042FCE6E74FF0FF30F5E74FF0FF30A1
:101C9000F2E7000000B583B0174B019300230093D7
:101CA000802216491648FFF7C3FF012805D0B0F17E
:101CB000FF3F17D003B05DF804FB4FF0500383F3F0
:101CC0001188BFF36F8FBFF34F8F0E4B4FF0FF3272
:101CD000DA620122C3F8B8210022C3F8C42100F05F
:101CE000D5FAE7E74FF0500383F31188BFF36F8F06
:101CF000BFF34F8FFEE700BF64020020804700085B
:101D0000B91F000894000020034AD2F8CC310133F7
:101D1000C2F8CC31704700BF940000202DE9F0419B
:101D2000404BD3F8CC31002B6CD13E4BD3F8C4518F
:101D30000135C3F8C451CDB99B6A1B6843B14FF05C
:101D4000500383F31188BFF36F8FBFF34F8FFEE70C
:101D5000344B9A6AD3F8AC119962C3F8AC21D3F82A
:101D6000D4210132C3F8D421FFF740FE2D4BDB6AAA
:101D7000AB423DD900242B4AD2F8B431DB6A03EBE5
:101D8000830399000A44136B012B42D9012440E0DC
:101D90000124244B9B6A1B6863B3224B9B6ADB685C
:101DA000DE6873689D422AD306F104084046FFF7B7
:101DB0000AFEB36A1BB106F11800FFF704FEF36ACE
:101DC00001229A40174FD7F8C0110A43C7F8C02123
:101DD00007F1300003EB83039A0041461044FFF7FC
:101DE000CCFDF26AD7F8B431DB6A9A42D0D2D0E7A0
:101DF0000024CEE70B4B4FF0FF32DA62BBE7094A13
:101E0000D362B8E7074AD2F8D8310133C2F8D831E3
:101E10000024044BD3F8DC3103B101242046BDE893
:101E2000F08100BF94000020394BD3F8CC3143B986
:101E30004FF0500383F31188BFF36F8FBFF34F8FC1
:101E4000FEE770B500F086F9314BD3F8CC21013AAA
:101E5000C3F8CC21D3F8CC31002B54D12C4BD3F880
:101E6000B03123B9002400F097F9204670BD00245A
:101E7000274B5B692BB3264D2B6ADC6804F11800F5
:101E8000FFF7A1FD261D3046FFF79DFDE36A012205
:101E90009A40D5F8C0110A43C5F8C02105F13000B9
:101EA00003EB83039A0031461044FFF766FDE26AB4
:101EB000D5F8B431DB6A9A42DAD30122C5F8DC21C5
:101EC000D6E70CB1FFF792FD114BD3F8D84164B1BE
:101ED000FFF724FF18B10E4B0122C3F8DC21013CAF
:101EE000F6D10B4B0022C3F8D821094BD3F8DC31D3
:101EF0005BB1084B4FF080521A60BFF34F8FBFF3B6
:101F00006F8F0124AFE70024ADE70024ABE700BFEB
:101F10009400002004ED00E010B5B0B104460F4B72
:101F2000D3F8CC3143B14FF0500383F31188BFF3A2
:101F30006F8FBFF34F8FFEE7FFF7E6FE00212046CD
:101F4000FFF732FEFFF770FF38B9054B4FF08052B4
:101F50001A60BFF34F8FBFF36F8F10BD9400002046
:101F600004ED00E038B5134BD3F8C8310BB3FFF7DD
:101F7000CBFE104BD3F89841FFF756FF002CF2D060
:101F800000F0E8F80B4CD4F8A431DD68281DFFF709
:101F90001AFDD4F8B031013BC4F8B031D4F8C831DF
:101FA000013BC4F8C83100F0F7F82846FFF730FDD0
:101FB000D9E738BD9400002008B5FFF7D3FF064BE2
:101FC0001B6B012BF9D9054B4FF080521A60BFF300
:101FD0004F8FBFF36F8FF0E79400002004ED00E017
:101FE000224BD3F8CC3123B1204B0122C3F8DC21A2
:101FF00070471E4A0023C2F8DC31D2F8C031B3FA70
:1020000083F3DBB2C3F11F0303EB830081000A44B7
:10201000126B42B94FF0500383F31188BFF36F8FF7
:10202000BFF34F8FFEE710B4104A9900CC18A00000
:102030001044446B646844633032194488000830AB
:10204000024494420BD0094903EB83039A000A44EB
:10205000536BDB68C1F8B4315DF8044B70476168BD
:102060000248142202FB03025163ECE794000020B3
:10207000064BD3F8B8313BB1044BD3F8CC310BB19C
:102080000020704702207047012070479400002014
:102090000B4B1B68B3F1FF3F08D04FF0500383F3A5
:1020A0001188BFF36F8FBFF34F8FFEE74FF05003E0
:1020B00083F31188BFF36F8FBFF34F8FFEE700BF2D
:1020C0000800002006480068006880F3088862B6AF
:1020D00061B6BFF34F8FBFF36F8F00DF00BF00000B
:1020E00008ED00E0DFF80C00016841F470010160C8
:1020F0007047000088ED00E04FF0807340F8043C2A
:1021000021F0010140F8081C054B40F80C3C40F858
:10211000202C6FF0020340F8243C4438704700BF85
:1021200091200008000000000000000000000000F6
:10213000074B19680868B0E8F04F80F30988BFF3CF
:102140006F8F4FF0000080F311887047AFF300806D
:10215000480200204FF0500383F31188BFF36F8FC4
:10216000BFF34F8F0A4A136801331360012B00D06D
:102170007047084B1B6813F0FF0FF9D04FF0500366
:1021800083F31188BFF36F8FBFF34F8FFEE700BF5C
:102190000800002004ED00E0094B1B6843B94FF034
:1021A000500383F31188BFF36F8FBFF34F8FFEE7A8
:1021B000013B034A13600BB983F31188704700BFDA
:1021C00008000020000000000000000000000000E7
:1021D000EFF30980BFF36F8F154B1A681EF0100FD5
:1021E00008BF20ED108A20E9F04F10604DF8043D43
:1021F0004FF0500080F31188BFF34F8FBFF36F8F04
:10220000FFF7EEFE4FF0000080F3118808BC19685C
:102210000868B0E8F04F1EF0100F08BFB0EC108A4D
:1022200080F30988BFF36F8F704700BFAFF3008062
:102230004802002008B54FF0500383F31188BFF324
:102240006F8FBFF34F8FFFF769FD18B1034B4FF04E
:1022500080521A60002383F3118808BD04ED00E06A
:10226000064B1B68064AA2FB03239B09013B054A58
:102270001360054B07221A60704700BF0C00002056
:10228000D34D621014E000E010E000E0314B1A681A
:10229000314B9A420DD02F4B1A68304B9A4211D1D4
:1022A0004FF0500383F31188BFF36F8FBFF34F8F4D
:1022B000FEE74FF0500383F31188BFF36F8FBFF336
:1022C0004F8FFEE700B583B0254B1A78D2B201924A
:1022D000FF221A701B78DBB28DF803309DF80330B3
:1022E00003F050031F4A1370072353609DF8033017
:1022F00013F0800F0AD01B4A5368013B53609DF8CE
:1023000003305B00DBB28DF80330EFE7154A53680A
:102310001B0203F4E0635360019BDBB2104A1370AD
:10232000114B1A6842F470021A601A6842F0704247
:102330001A60FFF795FF0D4B00221A60FFF7D2FEDF
:102340000B4A136843F040431360FFF7BBFEFFF7EF
:102350009FFE00BF00ED00E071C20F4170C20F414F
:1023600000E400E07402002020ED00E008000020FE
:1023700034EF00E0104A12F0070F1AD0D11D21F0FF
:102380000701C1F5705313440A460C490A60002046
:1023900048601344083B23F007038B6058601860C3
:1023A000981A50601360C86008614FF000434B6199
:1023B00070474FF47053E8E7940200207C0200203D
:1023C00010B4134B1A6882421BD359685C188442BC
:1023D00003D1406801445960184641684418A2423C
:1023E00013D10B4CA468A2420DD052681144416035
:1023F0001A6812680260984200D018605DF8044BB9
:1024000070471346DEE70460F5E70260F3E700BFBC
:102410007C02002070B50446FFF776FC394B9B68C0
:10242000BBB1384B5B691C4262D1ACB1083414F0CB
:10243000070F11D024F00704083404F007035BB140
:102440004FF0500383F31188BFF36F8FBFF34F8FAB
:10245000FEE7FFF78FFFE4E7002C4BD0294B1B6909
:10246000A34249D3274B1D6801E02B4615466A68F5
:10247000A24202D22A68002AF7D1224A9268AA42CE
:102480003CD01E6808362A681A606B681B1B102B2C
:1024900010D9281910F0070F08D04FF0500383F31C
:1024A0001188BFF36F8FBFF34F8FFEE743606C60FF
:1024B000FFF786FF6968134A13695B1A1361D268D4
:1024C000934201D20F4AD3600E4B5B690B436B60A2
:1024D00000232B60FFF7A8FC16F0070F10D04FF079
:1024E000500383F31188BFF36F8FBFF34F8FFEE765
:1024F0000026EFE70026EDE70026EBE70026E9E7F8
:10250000304670BD7C02002080B338B50446A0F18F
:10251000080550F8042C164949690A4208D14FF0C1
:10252000500383F31188BFF36F8FBFF34F8FFEE724
:1025300050F8080C40B14FF0500383F31188BFF3FB
:102540006F8FBFF34F8FFEE722EA010244F8042C9D
:10255000FFF7DAFB54F8041C054A13690B441361B6
:102560002846FFF72DFFFFF75FFC38BD704700BF1F
:102570007C02002030B583B06C4684E806001D461E
:10258000204601F040FA6870204601F038FAA87041
:10259000204601F034FA0012E870204601F031FACA
:1025A0002871204601F02DFA0012687103B030BD89
:1025B00030B583B0044602AD062305F8083D2B462E
:1025C00000F1080206CAFFF7D5FF6368284698475E
:1025D0002B46D4F80E10628A2046FFF7CBFF6368C3
:1025E000284698472B4604F1140206CA2046FFF7F6
:1025F000C1FF63682846984703B030BD70B582B00C
:1026000005460E4602AC182304F8083D234600F1A7
:10261000140206CAFFF7AEFF8DF806606B6820460D
:10262000984702B070BDF0B585B007466E4686E8A3
:1026300006001D4604AC302304F8083D234696E806
:102640000600FFF797FF8DF80E502D128DF80F50F2
:102650007B682046984705B0F0BD70B584B006464B
:102660006D4685E8060004AC312304F8083D234696
:1026700095E80600FFF77EFF73682046984704B090
:1026800070BD30B583B0054602AC352304F8083D73
:10269000234600F1140206CAFFF76CFF6B68204660
:1026A000984703B030BD10B50446083001F099F9E1
:1026B000034608B1184610BD04F10E0001F091F96F
:1026C00003460028F6D104F1140001F08AF903460C
:1026D000F0E710B50446FFF7E6FF60B923681B6812
:1026E0002046984701462046FFF788FF23681B686D
:1026F0002046984710BDFF212046FFF77FFFFF20AF
:10270000F8E710B5044600231A461946083001F0D0
:1027100064F900231A46194604F10E0001F05DF930
:1027200000231A46194604F1140001F056F910BDB1
:10273000F0B583B006460C460D784F78684601F038
:1027400040F9AB1F2F2B00F21881DFE813F03000A7
:1027500016011601160116011601160116011601C1
:102760001601160116011601160116019000160138
:102770001601E000160116011601160116011601D8
:102780001601160116011601160116011601160191
:102790001601160116011601160116011601160181
:1027A000160103013F011601160116011801103F21
:1027B000152F19D8DFE807F00B1818181826181865
:1027C0001818181818181818341818181842E0781B
:1027D000A17865792279102342EA052241EA002195
:1027E00006F1080001F0F9F83046FFF75CFF002819
:1027F00040F0C38096F82230002B34D03046FFF7EB
:1028000068FFBAE0E078A17865792279152342EA79
:10281000052241EA002106F10E0001F0DEF8E3E7AF
:10282000E078A17865792279202342EA052241EAFD
:10283000002106F1140001F0D0F8D5E7E078A17886
:1028400065792279252342EA052241EA002106F131
:102850001A0001F0C2F833685B68D6F81A10F28BE0
:1028600030469847C0E73046FFF7A2FE85E0103FAC
:10287000152F00F28280DFE807F00B80808080193E
:1028800080808080808080808080278080808035EC
:10289000E078A17865792279102342EA052241EA9D
:1028A000002106F1080001F098F866E0E078A178D0
:1028B00065792279152342EA052241EA002106F1D1
:1028C0000E0001F08AF858E0E078A1786579227965
:1028D000202342EA052241EA002106F1140001F01A
:1028E0007CF84AE0E078A17865792279252342EAEC
:1028F000052241EA002106F11A0001F06EF8336862
:102900005B68D6F81A10F28B3046984735E0A57907
:10291000202F32D1E078A17867792279202342EA0A
:10292000072241EA0021684601F057F8032D09D03B
:10293000694606F1140001F07CF829463046FFF79D
:102940005DFE1AE0002302AA12E906003046FFF7F6
:102950006AFEEDE7E078A178657922793B4642EAA4
:10296000052241EA002106F1140001F036F8304654
:10297000FFF787FE012386F8233003B0F0BD96F8F9
:10298000233033B9002386F823303046FFF7B9FEF1
:10299000F3E7E078A17894F805C022796D463B46CC
:1029A00042EA0C2241EA0021284601F016F8E279B9
:1029B000A37943EA0223338483F4244383F07A0324
:1029C00095E806003046FFF72EFEDBE7E078A178B9
:1029D000657922793B4642EA052241EA00216846B0
:1029E00000F0FBFF06F1140393E806003046FFF702
:1029F00034FEC2E710B40180428003719DF80430B8
:102A00004371BDF80830C380BDF80C3003819DF8D8
:102A100010308372BDF814308381BDF81830C38143
:102A2000002303615DF8044B704710B401804280BD
:102A300003719DF804304371BDF80830C380BDF8C0
:102A40000C3003819DF810308372BDF814308381FF
:102A5000BDF81830C381002303615DF8044B704753
:102A6000012800D070474FF6FF739942FAD12DE943
:102A7000F04F2DED028B87B0F34C4FF0100984F826
:102A800020904FF01F0384F8213084F822906426B0
:102A9000A6840127A7620025E56225634FF6FF7B28
:102AA000C4F834B084F83850A4F848609FEDE48B43
:102AB00084ED108B4FF0080A84F850A04FF00F02FD
:102AC00084F8512084F852A084F853606765A565A6
:102AD000E565FF210B46216684F8645084F8706038
:102AE00084ED1A8B4FF0200184F878104FF02F00FE
:102AF00084F8790084F87A90A4F87C60C4F8807037
:102B0000C4F88450C4F88850C4F88CB084F890504D
:102B1000A4F8A06084ED268B84F8A8504FF007003D
:102B200084F8A90084F8AAA084F8AB60C4F8AC705B
:102B3000C4F8B050C4F8B450C4F8B83084F8BC50ED
:102B400084F8C86084ED308B05954FF00A08CDF805
:102B50001080CDF80C80CDF80880019600950623F2
:102B60002A464FF4C2612046FFF744FF84F8F05034
:102B70004FF00F0284F8F12084F8F290A4F8F4608A
:102B8000C4F8F870C4F8FC50C4F80051C4F804B19B
:102B900084F80851A4F8186184ED448B84F82091DE
:102BA0004FF01F0384F8213184F82291A4F82461A6
:102BB000C4F82871C4F82C51C4F83051C4F834B1A9
:102BC00084F83851A4F8486184ED508B4FF020010F
:102BD00084F850114FF0270E84F851E184F852A187
:102BE00084F85361C4F85471C4F85851C4F85C5166
:102BF0004FF0FF0CC4F860C184F8645184F8706130
:102C000084ED5A8B0595CDF81080CDF80C80CDF869
:102C100008800196009505232A464FF4E06104F1EF
:102C2000D000FFF7E7FE4FF0200184F898114FF035
:102C30002F0C84F899C184F89A91A4F89C61C4F887
:102C4000A071C4F8A451C4F8A851C4F8ACB184F878
:102C5000B051A4F8C06184ED6E8B84F8C8A14FF028
:102C60000F0284F8C92184F8CAA184F8CB61C4F8A2
:102C7000CC71C4F8D051C4F8D451FF23C4F8D83172
:102C800084F8DC5184F8E86184ED788B84F8F09165
:102C90004FF01F0384F8F13184F8F291A4F8F46145
:102CA000C4F8F871C4F8FC51C4F80052C4F804B276
:102CB00084F80852A4F8186284ED848B84F82052BA
:102CC0004FF0070084F8210284F822A284F82362DE
:102CD000C4F82472C4F82852C4F82C52FF23C4F854
:102CE000303284F8345284F8406284ED8E8B4FF099
:102CF000300E84F848E24FF03F0C84F849C284F863
:102D00004A92A4F84C62C4F85072C4F85452C4F801
:102D10005852C4F85CB284F86052A4F8706284ED32
:102D20009A8B0595CDF81080CDF80C80CDF80880F1
:102D30000196009553462A464FF4E26104F5BC70B3
:102D4000FFF758FE84F898524FF00F0284F899224A
:102D500084F89A92A4F89C62C4F8A072C4F8A452B1
:102D6000C4F8A852C4F8ACB284F8B052A4F8C06257
:102D700084EDAE8B84F8C8924FF01F0384F8C932FB
:102D800084F8CA92A4F8CC62C4F8D072C4F8D452C1
:102D9000C4F8D852C4F8DCB284F8E052A4F8F06267
:102DA00084EDBA8B4FF0200184F8F8124FF0270E13
:102DB00084F8F9E284F8FAA284F8FB62C4F8FC72A1
:102DC000C4F80053C4F80453FF23C4F8083384F84C
:102DD0000C5384F8186384EDC48B0595CDF81080EE
:102DE000CDF80C80CDF808800196009505232A4681
:102DF00040F2017104F51E70FFF7FCFD4FF0200159
:102E000084F840134FF02F0C84F841C384F84293A8
:102E1000A4F84463C4F84873C4F84C53C4F850533E
:102E2000C4F854B384F85853A4F8686384EDD88B7D
:102E300084F870A34FF00F0208E000BFAFF30080EA
:102E40000000000000005940983E002084F87123E3
:102E500084F872A384F87363C4F87473C4F8785365
:102E6000C4F87C53FF23C4F8803384F8845384F877
:102E7000906384EDE28B84F898934FF01F0384F8FD
:102E8000993384F89A93A4F89C63C4F8A073C4F8A7
:102E9000A453C4F8A853C4F8ACB384F8B053A4F84E
:102EA000C06384EDEE8B84F8C8534FF0070084F8BC
:102EB000C90384F8CAA384F8CB63C4F8CC73C4F8FC
:102EC000D053C4F8D453FF23C4F8D83384F8DC5368
:102ED00084F8E86384EDF88B4FF0300E84F8F0E36B
:102EE0004FF03F0084F8F10384F8F293A4F8F46300
:102EF000C4F8F873C4F8FC53C4F80054C4F804B41C
:102F000084F80854A4F8186404F5826383ED008BF8
:102F10000595CDF81080CDF80C80CDF8088001968D
:102F2000009553462A4640F2117104F54870FFF7A8
:102F300061FD84F8205C4FF0070B84F821BC84F815
:102F400022AC84F8236CC4F8247CC4F8285CC4F850
:102F50002C5CC4F8305C84F8345C84F8406C04F574
:102F6000426383ED068B0595CDF81080CDF80C807B
:102F7000CDF80880019600953B462A464FF45471DF
:102F800004F64840FFF751FD84F8685C84F869BC9A
:102F900084F86AAC84F86B6CC4F86C7CC4F8705C20
:102FA000C4F8745CC4F8785C84F87C5C84F8886C41
:102FB00004F6684383ED068B0595CDF81080CDF8B7
:102FC0000C80CDF80880019600953B462A4640F2D9
:102FD000253104F54960FFF728FD84F840944FF04F
:102FE0001F0384F84134C84684F84294A4F844642A
:102FF000C4F84874C4F84C54C4F850544FF6FF7BDE
:10300000C4F854B484F85854A4F8686404F5886388
:1030100083ED088BD14684F870A44FF00F0284F83A
:10302000712484F872A484F87364C4F87474C4F8C6
:103030007854C4F87C544FF0FF0AC4F880A484F894
:10304000845484F8906404F58E6383ED068B4FF00E
:10305000200184F898144FF02F0C84F899C484F858
:103060009A84A4F89C64C4F8A074C4F8A454C4F866
:10307000A854C4F8ACB484F8B054A4F8C06404F5FF
:10308000936383ED088B84F8C8544FF0070084F8ED
:10309000C90484F8CA9484F8CB64C4F8CC74C4F826
:1030A000D054C4F8D454C4F8D8A484F8DC5484F8B8
:1030B000E86404F5996383ED068B05954FF00A0AE1
:1030C000CDF810A0CDF80CA0CDF808A00196009581
:1030D00006232A4640F2016104F58460FFF78AFC6A
:1030E00084F810854FF01F0384F8113584F8128599
:1030F000A4F81465C4F81875C4F81C55C4F8205514
:10310000C4F824B584F82855A4F8386504F5A263FA
:1031100083ED088B84F840954FF00F0284F8412529
:1031200084F8429584F84365C4F84475C4F848555A
:10313000C4F84C55FF23C4F8503584F8545584F82E
:10314000606504F5A86383ED068B4FF0200184F8D9
:1031500068154FF02F0C84F869C584F86A85A4F8C7
:103160006C65C4F87075C4F87455C4F87855C4F823
:103170007CB584F88055A4F8906504F5AD6383EDC3
:10318000088B84F898554FF0070084F8990584F867
:103190009A9584F89B65C4F89C75C4F8A055C4F84A
:1031A000A455FF23C4F8A83584F8AC5584F8B86555
:1031B00004F5B36383ED068B4FF0300E84F8C0E561
:1031C000372384F8C13584F8C29584F8C365C4F800
:1031D000C475C4F8C855C4F8CC55FF23C4F8D0351D
:1031E00084F8D45584F8E06504F5B86383ED068B64
:1031F0000595CDF810A0CDF80CA0CDF808A001964B
:10320000009507232A464FF4C46104F59E60FFF73A
:10321000F1FB84F808864FF01F0384F8093684F820
:103220000A86A4F80C66C4F81076C4F81456C4F8DC
:103230001856C4F81CB684F82056A4F8306604F575
:10324000C16383ED088B84F838964FF00F0284F841
:10325000392684F83A9684F83B66C4F83C76C4F87C
:103260004056C4F84456FF23C4F8483684F84C56F8
:1032700084F8586604F5C76383ED068B4FF0200190
:1032800084F860164FF02F0C84F861C684F86286CB
:10329000A4F86466C4F86876C4F86C56C4F870562E
:1032A000C4F874B684F87856A4F8886604F5CC633C
:1032B00083ED088B84F890564FF0070084F8910650
:1032C00084F8929684F89366C4F89476C4F8985675
:1032D000C4F89C56FF23C4F8A03684F8A45684F89A
:1032E000B06604F5D26383ED068B0595CDF810A08A
:1032F000CDF80CA0CDF808A00196009506232A462B
:1033000040F2256104F5BD60FFF774FB84F8D886B0
:103310004FF01F0384F8D93684F8DA86A4F8DC6607
:10332000C4F8E076C4F8E456C4F8E856C4F8ECB63D
:1033300084F8F056A4F8006704F5DB6383ED088B8E
:1033400084F808974FF00F0284F8092784F80A9749
:1033500084F80B67C4F80C77C4F81057C4F81457F6
:10336000FF23C4F8183784F81C5784F8286704F53D
:10337000E16383ED068B4FF0200184F830174FF0A6
:103380002F0C84F831C784F83287A4F83467C4F866
:103390003877C4F83C57C4F84057C4F844B784F8A9
:1033A0004857A4F8586704F5E66383ED088B84F862
:1033B00060574FF0070084F8610784F8629784F83B
:1033C0006367C4F86477C4F86857C4F86C57FF2380
:1033D000C4F8703784F8745784F8806704F5EC6398
:1033E00083ED068B0595CDF810A0CDF80CA0CDF897
:1033F00008A00196009506232A4640F2326104F5A2
:10340000D760FFF7F7FA84F8A8874FF01F0384F816
:10341000A93784F8AA87A4F8AC67C4F8B077C4F8D1
:10342000B457C4F8B857C4F8BCB784F8C057A4F868
:10343000D06704F5F56383ED088B84F8D8974FF0D7
:103440000F0284F8D92784F8DA9784F8DB67C4F888
:10345000DC77C4F8E057C4F8E457FF23C4F8E83732
:1034600084F8EC5784F8F86704F5FB6383ED068B6A
:103470004FF0200184F800184FF02F0C84F801C899
:1034800084F80288A4F80468C4F80878C4F80C58D2
:10349000C4F81058C4F814B884F81858A4F8286868
:1034A00004F5006383ED088B84F830584FF0070073
:1034B00084F8310884F8329884F83368C4F8347892
:1034C000C4F83858C4F83C58FF23C4F8403884F88E
:1034D000445884F8506804F5036383ED068B4FF07D
:1034E000300E84F858E83F2384F8593884F85A8815
:1034F000A4F85C68C4F86078C4F86458C4F86858E4
:10350000C4F86CB884F87058A4F8806804F65803BE
:1035100083ED088B0595CDF810A0CDF80CA0CDF863
:1035200008A0019600954B462A4640F2316104F509
:10353000F160FFF75FFA84F8A8884FF01F0384F862
:10354000A93884F8AA88A4F8AC68C4F8B078C4F89C
:10355000B458C4F8B858C4F8BCB884F8C058A4F833
:10356000D06804F6A80383ED088BC84684F8D89881
:103570004FF00F0284F8D92884F8DA9884F8DB68D1
:10358000C4F8DC78C4F8E058C4F8E4584FF0FF0BF6
:10359000C4F8E8B884F8EC5884F8F86804F6D8035E
:1035A00083ED068B4FF0200184F800194FF02F0CAB
:1035B00084F801C94FF0100A84F802A9A4F804693C
:1035C000C4F80879C4F80C59C4F810594FF6FF79BB
:1035D000C4F8149984F81859A4F8286904F51063FC
:1035E00083ED088B84F830594FF0070084F83109D7
:1035F00084F8328984F83369C4F83479C4F83859C6
:10360000C4F83C59C4F840B984F8445984F8506966
:1036100004F5136383ED068B05954FF00A09CDF889
:103620001090CDF80C90CDF80890019600950623E7
:103630002A464FF4C06104F68800FFF7DBF984F8EE
:1036400078A94FF01F0384F8793984F87AA9A4F88F
:103650007C69C4F88079C4F88459C4F888594FF655
:10366000FF73C4F88C3984F89059A4F8A06904F663
:10367000781383ED088B84F8A8894FF00F0284F843
:10368000A92984F8AA8984F8AB69C4F8AC79C4F88C
:10369000B059C4F8B459C4F8B8B984F8BC5984F81E
:1036A000C86904F6A81383ED068B4FF0200184F857
:1036B000D0194FF02F0C84F8D1C984F8D2A9A4F8FE
:1036C000D469C4F8D879C4F8DC59C4F8E0594FF685
:1036D000FF73C4F8E43984F8E859A4F8F86904F5EC
:1036E0001D6383ED088B84F8005A4FF0070084F8BF
:1036F000010A84F8028A84F8036AC4F8047AC4F8D8
:10370000085AC4F80C5AC4F810BA84F8145A84F849
:10371000206A04F5206383ED068B4FF0300E84F8A9
:1037200028EA372384F8293A84F82A8A84F82B6A0D
:10373000C4F82C7AC4F8305AC4F8345AC4F838BAE9
:1037400084F83C5A84F8486A04F6282383ED068BF3
:103750000595CDF81090CDF80C90CDF80890019615
:10376000009507232A4640F2216104F65810FFF71E
:1037700041F984F870AA4FF01F0384F8713A84F875
:1037800072AAA4F8746AC4F8787AC4F87C5AC4F8A7
:10379000805A4FF6FF73C4F8843A84F8885AA4F824
:1037A000986A04F5276383ED088B84F8A08A4FF0AC
:1037B0000F0284F8A12A84F8A28A84F8A36AC4F8C4
:1037C000A47AC4F8A85AC4F8AC5AC4F8B0BA84F8B9
:1037D000B45A84F8C06A04F52A6383ED068B4FF06F
:1037E000200184F8C81A4FF02F0C84F8C9CA84F855
:1037F000CAAAA4F8CC6AC4F8D07AC4F8D45AC4F8D7
:10380000D85A4FF6FF73C4F8DC3A84F8E05AA4F8AB
:10381000F06A04F6C82383ED088B84F8F85A4FF059
:10382000070084F8F90A84F8FA8A84F8FB6AC4F875
:10383000FC7AC4F8005BC4F8045BC4F808BB84F8E5
:103840000C5B84F8186B04F6F82383ED068B059562
:10385000CDF81090CDF80C90CDF808900196009519
:1038600006232A4640F2336104F52560FFF7C2F8CB
:1038700084F840AB4FF01F0384F8413B84F842AB1F
:10388000A4F8446BC4F8487BC4F84C5BC4F8505BA4
:103890004FF6FF73C4F8543B84F8585BA4F8686B88
:1038A00004F5346383ED088B84F8708B4FF00F02BE
:1038B00084F8712B84F8728B84F8736BC4F8747B72
:1038C000C4F8785BC4F87C5BC4F880BB84F8845B84
:1038D00084F8906B04F5376383ED068B4FF020017D
:1038E00084F8981B4FF02F0C84F899CB84F89AAB8E
:1038F000A4F89C6BC4F8A07BC4F8A45BC4F8A85BD4
:103900004FF6FF73C4F8AC3B84F8B05BA4F8C06B0F
:1039100004F6983383ED088B84F8C85B4FF00700FA
:1039200084F8C90B84F8CA8B84F8CB6BC4F8CC7BC1
:10393000C4F8D05BC4F8D45BC4F8D8BB84F8DC5BB3
:1039400084F8E86B04F6C83383ED068B4FF0300E35
:1039500084F8F0EB3F2384F8F13B84F8F2ABA4F851
:10396000F46BC4F8F87BC4F8FC5BC4F8005C4FF659
:10397000FF73C4F8043C84F8085CA4F8186C04F5E0
:103980003F6383ED088B0595CDF81090CDF80C9032
:10399000CDF808900196009543462A464FF4C6613B
:1039A00004F53260FFF726F807B0BDEC028BBDE8E6
:1039B000F08F00BF08B54FF6FF710120FFF750F8F8
:1039C00008BD0022028042800271704710B401805D
:1039D000428003715DF8044B70470180428003719F
:1039E000704703882BB943882BB903792BB100208A
:1039F0007047002070470020704701207047008802
:103A00007047408870470079704702880B889A4257
:103A100001D00020704742884B889A4201D0002094
:103A2000704702790B799A4201D00020704701203B
:103A300070470B8803804B8843800B790371704774
:103A400082B0002100910B4B1A6B42F002021A6304
:103A50001A6B02F002020092009A01911A6B42F076
:103A600001021A631B6B03F001030193019B02B077
:103A7000704700BF0038024008B50022052113201E
:103A8000FDF756F91320FDF787F9002205211420D0
:103A9000FDF74EF91420FDF77FF9002205211520CE
:103AA000FDF746F91520FDF777F9002205211620CC
:103AB000FDF73EF91620FDF76FF9002205213F20A2
:103AC000FDF736F93F20FDF767F900220521402078
:103AD000FDF72EF94020FDF75FF900220521412076
:103AE000FDF726F94120FDF757F900220521422074
:103AF000FDF71EF94220FDF74FF908BD70B584B0FF
:103B000006466C4684E80600252340F2AA624EF27F
:103B1000D16102A8FFF75AFF02A8FFF770FF054620
:103B20002046FFF76CFF854201D004B070BD6946A6
:103B300006F12400FFF77DFFF7E730B58DB00446AE
:103B4000102349F6125242F6A7116846FFF73EFFCE
:103B500010234EF6913242F6A71102A8FFF736FF66
:103B600010234BF6D84242F6A7110DEB0300FFF7E6
:103B70002DFF04F1080529466846FFF746FF28B9DE
:103B8000294602A8FFF741FF002865D015234EF60D
:103B9000AE4244F28C1106A8FFF718FF252340F22D
:103BA000AA624EF2D16108A8FFF710FF202342F26B
:103BB000920246F647710AA8FFF708FF04F10E01CA
:103BC00006A8FFF722FF034600284DD1002B5AD04C
:103BD000032003283ED0102349F6125242F6A711C3
:103BE00002A8FFF7F3FE10234EF6913242F6A7111A
:103BF0000DEB0300FFF7EAFE04F10805294602A8D1
:103C0000FFF703FF28B9294604A8FFF7FEFE0028A6
:103C10004AD0152348F2393244F28C1106A8FFF736
:103C2000D5FE252340F2AA624EF2D16108A8FFF723
:103C3000CDFE202341F26E6246F647710AA8FFF7D7
:103C4000C5FE04F10E0106A8FFF7DFFE0346E0B94A
:103C500063B303200DB030BD294604A8FFF7D5FE9D
:103C6000002893D10120B4E704F1240108A8FFF74C
:103C7000CCFE03460028A9D004F114010AA8FFF7DE
:103C8000C4FE0346A2E70220A3E704F1240108A82A
:103C9000FFF7BBFE03460028DAD004F114010AA89E
:103CA000FFF7B3FE0346D3E70120D3E70220D1E7B5
:103CB000012800D070474FF6FF739942FAD110B532
:103CC000124C2046124B40F8083BFFF77AFE04F1F5
:103CD0000E00FFF776FE04F11400FFF772FE04F108
:103CE0001A00FFF76EFE002184F8221084F82310DA
:103CF0002046084B40F8243B25230A46FFF766FE82
:103D0000054B6360012384F8223010BD444B002032
:103D100090470008A0470008B141000884B000B5F2
:103D200089B00DF1280C8CE80F0000230593049353
:103D30008DF81C30BDF8283002939DF82C30069386
:103D400001AB10AA02A912A8FCF77AFD28B901203C
:103D500009B05DF804EB04B070470020F8E70000FC
:103D600008B50268034B9A4200D008BDFCF7EAFB95
:103D7000FBE700BF00000140FEE7000008B5124865
:103D8000124BC362032303630023436383634FF433
:103D9000E022C2634FF40012026480F84430012232
:103DA00080F8452080F8462080F8473080F8483079
:103DB00080F849302C30FCF7D7FB00B908BD40F241
:103DC0004B110348FFF7D8FF444B0020006400402C
:103DD000A847000808B51248124B436503238365C2
:103DE0000023C36503664FF4E02242664FF40012DD
:103DF000826680F86C30012280F86D2080F86E2099
:103E000080F86F3080F8703080F871305430FCF7F3
:103E1000ABFB00B908BD4FF4B1710348FFF7ACFF2D
:103E2000444B002000680040A847000800B58BB054
:103E300000230593069301220792009301930293B6
:103E40000393049308920E23099369462448FCF7D0
:103E500031FC30BB0E21059100230693012207920D
:103E60000093019302930393049208920991694687
:103E70001C48FCF71FFCC8B91948FCF7B3FCD0B9C3
:103E80001848FCF7AFFCD8B902211548FCF7F1FD42
:103E9000D8B910211348FCF7ECFDD8B90BB05DF888
:103EA00004FB4FF4C2711048FFF766FF40F2951112
:103EB0000D48FFF761FF40F29B110B48FFF75CFFD5
:103EC0004FF4D0710848FFF757FF4FF4D3710648FD
:103ED000FFF752FF40F2AB110348FFF74DFF00BF61
:103EE000704B0020984B0020A847000800B595B003
:103EF00000220092294B196C41F0805119641B6C0F
:103F000003F080530093009B0192254B196841F404
:103F1000404119601B6803F440430193019B022355
:103F2000079301210A9110210B910D930E92082203
:103F30000F929022109211931293139307A8FDF7FA
:103F4000ADF910BB0F2302930223039300230493C4
:103F50004FF4A05305930693042102A8FDF72CF813
:103F6000B8B9FDF7D5F80F4BA3FB00308009FCF77B
:103F70001FFF0420FCF732FF00220F214FF0FF301B
:103F8000FCF7D6FE15B05DF804FBFC210648FFF7F0
:103F9000F3FE4FF485710448FFF7EEFE003802404F
:103FA00000700040D34D6210A847000800B587B0EC
:103FB000FCF7AEFAFFF79AFFFFF742FDFFF7DEFED0
:103FC000FFF708FFFFF758FDFFF730FF01AC074D83
:103FD0000FCD0FC42B682360002101A8FDF794FCCE
:103FE000034BD867FDF78BFCFEE700BF5447000882
:103FF000444B002000B58BB040F2223304930023E1
:1040000007930693022208928DF8243015238DF829
:104010000830AD238DF8093001AB02AA04A9074886
:10402000FCF70EFC20B94FF4FA70FDF787FCF3E7BC
:1040300040F257210248FFF79FFE00BF984B002037
:10404000A847000808B5274A02F1800388320021FA
:10405000FCF770FC18BB234BD3F88820224B1B883D
:104060009A4221D01F4BD3F88820204B1B889A42BC
:1040700020D01C4BD3F888201D4B1B889A421FD0A0
:10408000184BD3F888201B4B1B889A421ED0154B27
:10409000D3F88820184B1B889A421DD008BD4FF4D6
:1040A000DE711648FFF768FE0E4800F18001FEF74A
:1040B0003FFBD7E70B4800F18001FEF739FBD8E75B
:1040C000084800F18001FEF733FBD9E7054800F10D
:1040D0008001FEF72DFBDAE7024800F18001FEF7D0
:1040E00027FBDBE7444B0020983E0020683F002080
:1040F0001041002010400020B8410020A8470008CF
:1041000008B5214A02F1A403AC320121FCF712FCEC
:10411000E0B91D4BD3F8AC201C4B1B889A421AD037
:10412000194BD3F8AC201A4B1B889A4219D0164B66
:10413000D3F8AC20174B1B889A4218D0124BD3F8F7
:10414000AC20154B1B889A4217D008BD4FF4EB7179
:104150001248FFF711FE0C4800F1A401FEF7E8FA3F
:10416000DEE7094800F1A401FEF7E2FADFE70648BE
:1041700000F1A401FEF7DCFAE0E7034800F1A40136
:10418000FEF7D6FAE1E700BF444B002020470020AD
:10419000B8490020983E0020E8480020A8470008C1
:1041A00008B50279183000F067FA002008BD000059
:1041B00070B58EB00378183B1D2B28D8DFE803F0CC
:1041C0000F27272727272727272727272727272797
:1041D00027272727272727272A5C27272743334EE8
:1041E00001463046FFF7DCFF04AC314D0FCD0FC464
:1041F0000FCD0FC495E8030084E8030006F1100317
:104200000FCB8DE80F0096E80F00FFF787FD012028
:104210000EB070BD274E01463046FFF7C1FF04AC1B
:10422000254D0FCD0FC40FCD0FC495E8030084E8D2
:10423000030006F110030FCB8DE80F0096E80F0086
:10424000FFF76CFDE3E71D4E01463046FFF7A8FF80
:1042500004AC194D0FCD0FC40FCD0FC495E803006A
:1042600084E8030006F110030FCB8DE80F0096E8F9
:104270000F00FFF753FDCAE7114E01463046FFF726
:104280008FFF04AC0C4D0FCD0FC40FCD0FC495E8BC
:10429000030084E8030006F110030FCB8DE80F0044
:1042A00096E80F00FFF73AFDB1E700BF8843002012
:1042B000984B002020460020704B002080440020B6
:1042C0005045002008B54FF6FF710120FFF7F0FCC4
:1042D00008BD000010B582B000240094214B5A6C38
:1042E00042F480425A645A6C02F480420092009A6E
:1042F00001941A6C42F080521A641B6C03F08053D4
:104300000193019B0320FCF701FD224621466FF03B
:104310000B00FCF70DFD224621466FF00A00FCF76A
:1043200007FD224621466FF00900FCF701FD2246F9
:1043300021466FF00400FCF7FBFC224621466FF09B
:104340000300FCF7F5FC22460F216FF00100FCF79B
:10435000EFFC22460F214FF0FF30FCF7E9FC02B0E2
:1043600010BD00BF0038024000B589B003682D4A77
:10437000934205D02C4A934225D009B05DF804FB46
:104380002A4A136801331360012B0FD04FF4C05336
:104390000393022304930023059303230693092325
:1043A000079303A92248FCF729FDE6E700230093C1
:1043B000204B1A6C42F000721A641B6C03F00073FD
:1043C0000093009BE2E7002301931A4B1A6C42F022
:1043D00080621A641B6C03F080630193019B134A93
:1043E000136801331360012B0FD04FF44053039334
:1043F00002230493002305930323069309230793C1
:1044000003A90D48FCF7FAFCB7E700230293094B18
:104410001A6C42F000721A641B6C03F00073029372
:10442000029BE2E70064004000680040304C00203E
:1044300000000240003802400004024010B588B07D
:10444000002201461920FCF773FC1920FCF7A4FC9C
:1044500000240194144B5A6C42F001025A645B6CC4
:1044600003F001030193019B02A903A8FCF766FE78
:10447000FCF754FE43000D48A0FB03239B0C013BBB
:104480000B480C4A026040F2E732C26043600461AC
:104490008460FDF713FA10B1012008B010BD044884
:1044A000FDF7DFF8F9E700BF0038024083DE1B4369
:1044B000384C0020000001407047FEE7FEE7FEE7B1
:1044C000FEE7704708B5FDF742FA08BD08B5024897
:1044D000FCF7F0FA08BD00BF704B002008B5024899
:1044E000FCF7E8FA08BD00BF704B002008B5024891
:1044F000FCF7E0FA08BD00BF704B002008B5024889
:10450000FCF7D8FA08BD00BF704B002008B5024880
:10451000FDF7B7F808BD00BF384C002008B50248C9
:10452000FCF7C8FA08BD00BF984B002008B5024848
:10453000FCF7C0FA08BD00BF984B002008B5024840
:10454000FCF7B8FA08BD00BF984B002008B5024838
:10455000FCF7B0FA08BD00BF984B00200F49D1F816
:10456000883043F47003C1F888300D4B1A6842F06C
:1045700001021A60002098601A6822F0847222F406
:1045800080321A60074A5A601A6822F480221A6040
:10459000D8604FF000638B60704700BF00ED00E013
:1045A0000038024010300024DFF834D0002103E04E
:1045B0000C4B5B58435004310B480C4B42189A4249
:1045C000F6D30B4A02E0002342F8043B094B9A421F
:1045D000F9D3FFF7C3FF00F02BF8FFF7E7FC7047B4
:1045E00000000220D84700080000002078000020CA
:1045F00078000020784C0020FEE708B500F00CF8A9
:1046000008B5804700F00DF8024B1868BFF35B8FC8
:10461000704700BF1000002008B5FFF7F5FFFFF757
:10462000EFFF08B5062000F05BF8012000F084F8E9
:1046300070B50D4E0D4CA41BA4100025A54209D148
:104640000B4E0C4C00F07AF8A41BA4100025A542D8
:1046500005D170BD56F8253098470135EEE756F87C
:10466000253098470135F2E7C8470008C8470008D9
:10467000C8470008D447000810B5431E0A449142B9
:1046800000D110BD11F8014B03F8014FF7E71F29C6
:1046900038B504460D4604D9162303604FF0FF30A9
:1046A00038BD426C12B152F821304BB9204600F0AF
:1046B00031F82A4601462046BDE8384000F018B8D7
:1046C000012B0AD0591C03D1162303600120E7E710
:1046D000002442F82540284698470020E0E70000E3
:1046E000024B01461868FFF7D2BF00BF140000203C
:1046F00038B5074C0023054608461146236000F0F4
:1047000013F8431C02D1236803B12B6038BD00BFEE
:10471000744C002000F000B8024B58221A604FF091
:10472000FF307047744C0020024B58221A604FF043
:10473000FF307047744C0020FEE700BFF8B500BFA3
:10474000F8BC08BC9E467047F8B500BFF8BC08BC72
:044750009E467047CA
:10475400B8470008F53F0008000000000000000012
:1047640080000000000000000000000001020304BB
:1047740006070809000000000102030449444C45EF
:10478400000000000000000000000000FB450008DD
:10479400FB45000800000000000000003B3B00084F
:1047A400FD3A00082E2E2F5372632F6D61696E2E11
:0C47B400637070004D61696E0000000031
:0847C00080BAFF7F0100000038
:0C47C800F5010008B5390008C5420008E2
:0447D400D101000807
:1047D8000100000010000000AAAAAAAA0024F40000
:1047E8002346000818000020000000000000000018
:1047F80000000000000000000000000000000000B1
:1048080000000000000000000000000000000000A0
:104818000000000000000000000000000000000090
:104828000000000000000000000000000000000080
:104838000000000000000000000000000000000070
:08484800000000000000000068
:04000005080045A901
:00000001FF
