:020000040800F2
:1000000000000220D56500087564000883640008BC
:10001000896400088F6400089564000800000000EF
:10002000000000000000000000000000E1390008AE
:100030009B64000800000000F13B0008A964000870
:100040002566000825660008256600082566000864
:100050002566000825660008256600082566000854
:100060002566000825660008256600082566000844
:100070002566000825660008256600082566000834
:10008000256600082566000825660008B564000896
:10009000C9640008DD640008F164000825660008F2
:1000A0002566000805650008256600082566000825
:1000B00025660008256600082566000825660008F4
:1000C00025660008256600082566000825660008E4
:1000D00025660008256600082566000825660008D4
:1000E00025660008256600082566000825660008C4
:1000F00025660008256600082566000825660008B4
:1001000025660008256600082566000825660008A3
:100110002566000825660008256600082566000893
:100120002566000825660008256600082566000883
:1001300025660008000000000000000019650008A6
:100140002D65000841650008556500082566000812
:100150002566000825660008256600082566000853
:100160002566000825660008256600082566000843
:1001700025660008256600082566000800000000C6
:1001800000000000256600080000000000000000DC
:100190002566000800000000000000002566000839
:1001A00000000000000000000000000025660008BC
:1001B00025660008256600082566000825660008F3
:0401C00025660008A8
:1001D00010B5054C237833B9044B13B10448AFF381
:1001E00000800123237010BD1000002000000000DB
:1001F0008866000808B5034B1BB103490348AFF3F9
:10020000008008BD0000000014000020886600087F
:1002100081F0004102E000BF83F0004330B54FEAB7
:1002200041044FEA430594EA050F08BF90EA020F24
:100230001FBF54EA000C55EA020C7FEA645C7FEAB7
:10024000655C00F0E2804FEA5454D4EB5555B8BFDA
:100250006D420CDD2C4480EA020281EA030382EA4B
:10026000000083EA010180EA020281EA0303362DDD
:1002700088BF30BD11F0004F4FEA01314FF4801CB0
:100280004CEA113102D0404261EB410113F0004FC2
:100290004FEA03334CEA133302D0524263EB430379
:1002A00094EA050F00F0A780A4F10104D5F1200E17
:1002B0000DDB02FA0EFC22FA05F2801841F1000172
:1002C00003FA0EF2801843FA05F359410EE0A5F146
:1002D00020050EF1200E012A03FA0EFC28BF4CF077
:1002E000020C43FA05F3C01851EBE37101F000452D
:1002F00007D54FF0000EDCF1000C7EEB00006EEB3A
:100300000101B1F5801F1BD3B1F5001F0CD34908C3
:100310005FEA30004FEA3C0C04F101044FEA44521A
:1003200012F5800F80F09A80BCF1004F08BF5FEAA1
:10033000500C50F1000041EB045141EA050130BD81
:100340005FEA4C0C404141EB010111F4801FA4F124
:100350000104E9D191F0000F04BF01460020B1FA79
:1003600081F308BF2033A3F10B03B3F120020CDAB1
:100370000C3208DD02F1140CC2F10C0201FA0CF08F
:1003800021FA02F10CE002F11402D8BFC2F1200CF4
:1003900001FA02F120FA0CFCDCBF41EA0C019040AA
:1003A000E41AA2BF01EB0451294330BD6FEA0404F3
:1003B0001F3C1CDA0C340EDC04F11404C4F12002DE
:1003C00020FA04F001FA02F340EA030021FA04F3F0
:1003D00045EA030130BDC4F10C04C4F1200220FA47
:1003E00002F001FA04F340EA0300294630BD21FA85
:1003F00004F0294630BD94F0000F83F4801306BF4B
:1004000081F480110134013D4EE77FEA645C18BF3E
:100410007FEA655C29D094EA050F08BF90EA020FD5
:1004200005D054EA000C04BF1946104630BD91EACD
:10043000030F1EBF0021002030BD5FEA545C05D1D0
:100440004000494128BF41F0004130BD14F580040F
:100450003CBF01F5801130BD01F0004545F0FE4183
:1004600041F470014FF0000030BD7FEA645C1ABFB8
:10047000194610467FEA655C1CBF0B46024650EAEF
:10048000013406BF52EA033591EA030F41F400211B
:1004900030BD00BF90F0000F04BF0021704730B5A1
:1004A0004FF4806404F132044FF000054FF0000176
:1004B00050E700BF90F0000F04BF0021704730B537
:1004C0004FF4806404F1320410F0004548BF40420C
:1004D0004FF000013EE700BF42004FEAE2014FEA61
:1004E00031014FEA02701FBF12F07F4393F07F4F3C
:1004F00081F06051704732F07F4208BF704793F03F
:100500007F4F04BF41F40021704730B54FF4607451
:1005100001F0004521F000411CE700BF50EA010254
:1005200008BF704730B54FF000050AE050EA0102FD
:1005300008BF704730B511F0004502D5404261EB6D
:1005400041014FF4806404F132045FEA915C3FF4AE
:10055000D8AE4FF003025FEADC0C18BF03325FEA4B
:10056000DC0C18BF033202EBDC02C2F1200300FAFC
:1005700003FC20FA02F001FA03FE40EA0E0021FA21
:1005800002F11444BDE600BF70B54FF0FF0C4CF40F
:10059000E06C1CEA11541DBF1CEA135594EA0C0FC1
:1005A00095EA0C0F00F0DEF82C4481EA030621EAFC
:1005B0004C5123EA4C5350EA013518BF52EA033537
:1005C00041F4801143F4801338D0A0FB02CE4FF0E9
:1005D0000005E1FB02E506F00042E0FB03E54FF019
:1005E0000006E1FB03569CF0000F18BF4EF0010E11
:1005F000A4F1FF04B6F5007F64F5407404D25FEA0D
:100600004E0E6D4146EB060642EAC62141EA5551BF
:100610004FEAC52040EA5E504FEACE2EB4F1FD0C01
:1006200088BFBCF5E06F1ED8BEF1004F08BF5FEA7F
:10063000500E50F1000041EB045170BD06F0004631
:1006400046EA010140EA020081EA0301B4EB5C04DE
:10065000C2BFD4EB0C0541EA045170BD41F48011D6
:100660004FF0000E013C00F3AB8014F1360FDEBFFB
:10067000002001F0004170BDC4F10004203C35DAD7
:100680000C341BDC04F11404C4F1200500FA05F35A
:1006900020FA04F001FA05F240EA020001F00042FB
:1006A00021F0004110EBD37021FA04F642EB060171
:1006B0005EEA430E08BF20EAD37070BDC4F10C049B
:1006C000C4F1200500FA04F320FA05F001FA04F25F
:1006D00040EA020001F0004110EBD37041F100014B
:1006E0005EEA430E08BF20EAD37070BDC4F1200556
:1006F00000FA05F24EEA020E20FA04F301FA05F2BE
:1007000043EA020321FA04F001F0004121FA04F265
:1007100020EA020000EBD3705EEA430E08BF20EA35
:10072000D37070BD94F0000F0FD101F0004640006F
:1007300041EB010111F4801F08BF013CF7D041EAF1
:10074000060195F0000F18BF704703F000465200F5
:1007500043EB030313F4801F08BF013DF7D043EAC6
:100760000603704794EA0C0F0CEA135518BF95EA7C
:100770000C0F0CD050EA410618BF52EA4306D1D103
:1007800081EA030101F000414FF0000070BD50EA22
:10079000410606BF1046194652EA430619D094EAAC
:1007A0000C0F02D150EA013613D195EA0C0F05D196
:1007B00052EA03361CBF104619460AD181EA0301EA
:1007C00001F0004141F0FE4141F470014FF00000A2
:1007D00070BD41F0FE4141F4780170BD70B54FF03D
:1007E000FF0C4CF4E06C1CEA11541DBF1CEA1355BD
:1007F00094EA0C0F95EA0C0F00F0A7F8A4EB05049F
:1008000081EA030E52EA03354FEA013100F0888095
:100810004FEA03334FF0805545EA131343EA12635E
:100820004FEA022245EA111545EA10654FEA002613
:100830000EF000419D4208BF964244F1FD0404F5CC
:10084000407402D25B084FEA3202B61A65EB030528
:100850005B084FEA32024FF480104FF4002CB6EBE5
:10086000020E75EB030E22BFB61A754640EA0C0065
:100870005B084FEA3202B6EB020E75EB030E22BFA5
:10088000B61A754640EA5C005B084FEA3202B6EBE6
:10089000020E75EB030E22BFB61A754640EA9C00A5
:1008A0005B084FEA3202B6EB020E75EB030E22BF75
:1008B000B61A754640EADC0055EA060E18D04FEA33
:1008C000051545EA16754FEA06164FEAC30343EAD3
:1008D00052734FEAC2025FEA1C1CC0D111F4801FA0
:1008E0000BD141EA00014FF000004FF0004CB6E799
:1008F00011F4801F04BF01430020B4F1FD0C88BF38
:10090000BCF5E06F3FF6AFAEB5EB030C04BFB6EB42
:10091000020C5FEA500C50F1000041EB045170BD35
:100920000EF0004E4EEA113114EB5C04C2BFD4EB62
:100930000C0541EA045170BD41F480114FF0000EE6
:10094000013C90E645EA060E8DE60CEA135594EA62
:100950000C0F08BF95EA0C0F3FF43BAF94EA0C0F65
:100960000AD150EA01347FF434AF95EA0C0F7FF4DA
:1009700025AF104619462CE795EA0C0F06D152EA2E
:1009800003353FF4FDAE1046194622E750EA410612
:1009900018BF52EA43067FF4C5AE50EA41047FF423
:1009A0000DAF52EA43057FF4EBAE12E753B94AB9F3
:1009B000002908BF00281CBF4FF0FF314FF0FF3067
:1009C00000F072B9ADF1080C6DE904CE00F006F844
:1009D000DDF804E0DDE9022304B070472DE9F047BB
:1009E000089E04468846002B4BD18A42154667D99B
:1009F000B2FA82F24AB1C2F1200701FA02F320FAF8
:100A000007F7954047EA030894404FEA154E230C38
:100A1000B8FBFEF71FFA85FC0EFB178843EA084374
:100A200007FB0CF1994209D9EB1807F1FF3080F070
:100A30001B81994240F21881023F2B445B1AA4B2F9
:100A4000B3FBFEF00EFB103344EA034400FB0CFC46
:100A5000A44509D92C1900F1FF3380F00781A44582
:100A600040F2048102382C4440EA0740A4EB0C0415
:100A700000271EB1D4400023C6E900433946BDE833
:100A8000F0878B4209D9002E00F0EB800027C6E9E1
:100A9000000138463946BDE8F087B3FA83F7002FE6
:100AA00047D18B4202D3824200F2FA80841A61EB72
:100AB000030301209846002EE0D0C6E90048DDE798
:100AC00002B9FFDEB2FA82F2002A40F08F80491BA1
:100AD0004FEA154E1FFA85F80127B1FBFEFC230CE7
:100AE0000EFB1C1143EA014308FB0CF1994207D9A4
:100AF000EB180CF1FF3002D2994200F2CD8084460F
:100B0000591AA3B2B1FBFEF00EFB101443EA0444E1
:100B100008FB00F8A04507D92C1900F1FF3302D2D9
:100B2000A04500F2B6801846A4EB080440EA0C4049
:100B30009FE7C7F1200CBB4022FA0CFE4EEA030EE1
:100B400001FA07F420FA0CF521FA0CF34FEA1E48DB
:100B50002543B3FBF8F92C0C08FB19331FFA8EFA66
:100B600044EA034309FB0AF49C4202FA07F200FA42
:100B700007F10BD91EEB030309F1FF3080F08780EA
:100B80009C4240F28480A9F1020973441B1BADB260
:100B9000B3FBF8F008FB103345EA034400FB0AFA04
:100BA000A24508D91EEB040400F1FF336BD2A24525
:100BB00069D90238744440EA0940A0FB0289A4EBD9
:100BC0000A044C45C2464B4654D351D0002E69D03E
:100BD000B1EB0A0564EB030404FA0CFCFD40FC4095
:100BE0004CEA0505C6E90054002747E7C2F1200397
:100BF00020FA03F7954001FA02F021FA03F34FEAD5
:100C0000154E3843010CB3FBFEF71FFA85F80EFBB7
:100C1000173341EA034107FB08F38B4204FA02F45D
:100C200007D9691807F1FF3C2FD28B422DD9023F1B
:100C30002944CB1A81B2B3FBFEF00EFB103341EA1C
:100C4000034100FB08F38B4207D9691800F1FF3C10
:100C500017D28B4215D902382944C91A40EA0747EE
:100C60003BE73746304609E70746E7E61846FBE626
:100C70004145ABD2B8EB020A69EB0E0201381346CC
:100C8000A4E76046E9E7184695E76746D1E781465D
:100C90007CE702382C4447E7ACF1020C2B442FE7E9
:100CA000384608E73746E9E6704700BF80B500AF31
:100CB0000E4B1B680D4A43F4007313600B4B1B680B
:100CC0000A4A43F480631360084B1B68074A43F4E5
:100CD00080731360032000F055FF002005F070FBC7
:100CE00005F09EFA0023184680BD00BF003C02407C
:100CF00080B400AF064B1B781A46064B1B681344A2
:100D0000044A136000BFBD465DF8047B704700BF16
:100D100004000020D84B002080B400AF034B1B68B8
:100D20001846BD465DF8047B704700BFD84B0020D5
:100D300080B584B000AF78600023FB607B68002B37
:100D400001D10123EDE07B6893F82030DBB2002B6A
:100D500002D1786805F0B6FA7B681B681A687B6870
:100D60001B6822F002021A60FFF7D6FFF86012E05B
:100D7000FFF7D2FF0246FB68D31A0A2B0BD97B6818
:100D80005B6A43F400327B685A627B68052283F811
:100D900020200123C5E07B681B685B6803F0020329
:100DA000002BE5D17B681B681A687B681B6842F0E2
:100DB00001021A60FFF7B0FFF86012E0FFF7ACFF26
:100DC0000246FB68D31A0A2B0BD97B685B6A43F493
:100DD00000327B685A627B68052283F82020012359
:100DE0009FE07B681B685B6803F00103002BE5D084
:100DF0007B681B7E012B08D17B681B681A687B68A7
:100E00001B6842F080021A6007E07B681B681A6862
:100E10007B681B6822F080021A607B685B7E012B76
:100E200008D17B681B681A687B681B6842F0400227
:100E30001A6007E07B681B681A687B681B6822F0F1
:100E400040021A607B689B7E012B08D17B681B687F
:100E50001A687B681B6842F020021A6007E07B6812
:100E60001B681A687B681B6822F020021A607B6886
:100E7000DB7E012B08D17B681B681A687B681B68C6
:100E800022F010021A6007E07B681B681A687B6812
:100E90001B6842F010021A607B681B7F012B08D18F
:100EA0007B681B681A687B681B6842F008021A603E
:100EB00007E07B681B681A687B681B6822F00802E1
:100EC0001A607B685B7F012B08D17B681B681A68FE
:100ED0007B681B6842F004021A6007E07B681B68AD
:100EE0001A687B681B6822F004021A607B689A68A3
:100EF0007B68DB681A437B681B691A437B685B6904
:100F000042EA03017B685B685A1E7B681B680A43E0
:100F1000DA617B6800225A627B68012283F8202014
:100F2000002318461037BD4680BD000080B485B050
:100F300000AF786039600023FB607B681B68BB6092
:100F40007B6893F82030DBB2012B06D07B6893F8E6
:100F50002030DBB2022B40F0BC80644BBB60BB682E
:100F6000D3F8003243F00102BB68C3F80022BB682B
:100F7000D3F8003223F47C52BB68C3F80022BB686C
:100F8000D3F800223B685B6A1B021A43BB68C3F8B4
:100F900000223B685B69012202FA03F3FB60BB6835
:100FA000D3F81C22FB68DB431A40BB68C3F81C2241
:100FB0003B68DB69002B23D1BB68D3F80C22FB68AC
:100FC000DB431A40BB68C3F80C223B68DB6819049A
:100FD0003B685B689BB23A6852691943BB68483208
:100FE00043F832103B689B6819043B681B689AB24F
:100FF0003B685B690A43B9684833DB000B445A60BD
:101000003B68DB69012B22D1BB68D3F80C22FB685B
:101010001A43BB68C3F80C223B681B6819043B6881
:101020005B689BB23A6852691943BB68483243F81F
:1010300032103B689B6819043B68DB689AB23B68D6
:101040005B690A43B9684833DB000B445A603B686C
:101050009B69002B09D1BB68D3F80422FB68DB43F2
:101060001A40BB68C3F8042207E0BB68D3F8042227
:10107000FB681A43BB68C3F804223B681B69002B5A
:1010800009D1BB68D3F81422FB68DB431A40BB6864
:10109000C3F8142207E0BB68D3F81422FB681A4394
:1010A000BB68C3F814223B681B6A012B07D1BB68DD
:1010B000D3F81C22FB681A43BB68C3F81C22BB6828
:1010C000D3F8003223F00102BB68C3F800220023EA
:1010D00006E07B685B6A43F480227B685A620123E6
:1010E00018461437BD465DF8047B70470064004025
:1010F00080B584B000AF78600023FB607B6893F814
:101100002030DBB2012B2ED17B68022283F8202015
:101110007B681B681A687B681B6822F001021A60F2
:10112000FFF7FAFDF86012E0FFF7F6FD0246FB68F4
:10113000D31A0A2B0BD97B685B6A43F400327B68B5
:101140005A627B68052283F82020012312E07B6825
:101150001B685B6803F00103002BE5D17B6800226C
:101160005A62002306E07B685B6A43F400227B68D6
:101170005A62012318461037BD4680BD80B487B03F
:1011800000AFF860B9607A603B60FB6893F820308C
:10119000DBB2012B06D0FB6893F82030DBB2022BC8
:1011A00040F0B580FB681B689B6803F08063002BF0
:1011B0000ED1FB681B689B6803F00063002B07D10E
:1011C000FB681B689B6803F08053002B00F097803E
:1011D000FB681B689B681B0E03F003037B61012205
:1011E0007B699A403B681A60BB689B68002B0DD1F5
:1011F000BB681B685A05BB68DB68F96809681A4355
:101200007B6918331B010B441A600FE0BB685B68F5
:10121000DA00BB689B681A43BB68DB68F968096839
:101220001A437B6918331B010B441A60FB68196869
:10123000BB681A697B6918331B010B4404331A60BD
:10124000BB681B7D012B11D1FB681A687B691833C1
:101250001B01134404331B68FA68116843F480725D
:101260007B6918331B010B4404331A607B68073316
:101270001B781A067B6806331B781B041A437B68AD
:1012800005331B781B0213437A6804321278104628
:10129000FA68116843EA00027B691B010B4403F5FD
:1012A000C6731A607B6803331B781A067B680233A7
:1012B0001B781B041A437B6801331B781B02134302
:1012C0007A6812781046FA68116843EA00027B696E
:1012D0001B010B4403F5C4731A60FB681A687B6931
:1012E00018331B0113441B68FA68116843F00102AC
:1012F0007B6918331B010B441A6000230EE0FB6866
:101300005B6A43F40012FB685A62012306E0FB6843
:101310005B6A43F48022FB685A62012318461C373B
:10132000BD465DF8047B704780B485B000AFF860BF
:10133000B9607A603B60FB6893F82030DBB2012B28
:1013400006D0FB6893F82030DBB2022B40F0FA8025
:10135000BB68002B0ED1FB681B68DB6803F003033E
:10136000002B19D1FB685B6A43F40012FB685A62D8
:101370000123EEE0BB68012B0ED1FB681B681B69E3
:1013800003F00303002B07D1FB685B6A43F40012F0
:10139000FB685A620123DCE0FB681A68BB681B33F8
:1013A0001B0113441B6803F004027B689A607B688E
:1013B0009B68002B0CD1FB681A68BB681B331B01B0
:1013C00013441B685B0DC3F30A027B681A600BE0D1
:1013D000FB681A68BB681B331B0113441B68DB08DE
:1013E00023F060427B685A60FB681A68BB681B3355
:1013F0001B0113441B685B0803F001027B68DA6081
:10140000FB681A68BB681B331B01134404331B6859
:1014100003F00F027B681A61FB681A68BB681B3314
:101420001B01134404331B681B0ADAB27B689A6100
:10143000FB681A68BB681B331B01134404331B6829
:101440001B0C9AB27B685A61FB681A68BB681B0167
:10145000134403F5DC731B68DAB23B681A70FB684F
:101460001A68BB681B01134403F5DC731B681A0A76
:101470003B680133D2B21A70FB681A68BB681B0163
:10148000134403F5DC731B681A0C3B680233D2B2B9
:101490001A70FB681A68BB681B01134403F5DC7300
:1014A0001B681A0E3B680333D2B21A70FB681A68C5
:1014B000BB681B01134403F5DE731A683B680433F1
:1014C000D2B21A70FB681A68BB681B01134403F59B
:1014D000DE731B681A0A3B680533D2B21A70FB68C8
:1014E0001A68BB681B01134403F5DE731B681A0CF2
:1014F0003B680633D2B21A70FB681A68BB681B01DE
:10150000134403F5DE731B681A0E3B680733D2B22F
:101510001A70BB68002B08D1FB681B68DA68FB688F
:101520001B6842F02002DA600AE0BB68012B07D199
:10153000FB681B681A69FB681B6842F020021A618D
:10154000002306E0FB685B6A43F48022FB685A6272
:10155000012318461437BD465DF8047B704780B4FC
:1015600083B000AF786039607B6893F82030DBB2DD
:10157000012B05D07B6893F82030DBB2022B09D118
:101580007B681B6859697B681B683A680A435A6123
:10159000002306E07B685B6A43F480227B685A6222
:1015A000012318460C37BD465DF8047B704780B5B3
:1015B0008AB000AF786000237B627B681B685B6940
:1015C0003B627B681B685B68FB617B681B689B6890
:1015D000BB617B681B68DB687B617B681B681B6980
:1015E0003B617B681B689B69FB603B6A03F00103FE
:1015F000002B7CD0BB6903F00103002B23D07B6858
:101600001B6801229A60BB6903F00203002B03D020
:10161000786800F07DF916E0BB6903F00403002B45
:1016200004D07B6A43F400637B620CE0BB6903F087
:101630000803002B04D07B6A43F480537B6202E0F2
:10164000786800F083F9BB6903F48073002B24D021
:101650007B681B684FF480729A60BB6903F4007367
:10166000002B03D0786800F05DF916E0BB6903F445
:101670008063002B04D07B6A43F400537B620CE050
:10168000BB6903F40063002B04D07B6A43F48043FE
:101690007B6202E0786800F063F9BB6903F4803391
:1016A000002B24D07B681B684FF480329A60BB69A2
:1016B00003F40033002B03D0786800F03DF916E006
:1016C000BB6903F48023002B04D07B6A43F40043FE
:1016D0007B620CE0BB6903F40023002B04D07B6A1F
:1016E00043F480337B6202E0786800F043F93B6AA0
:1016F00003F00803002B0CD07B6903F01003002BD0
:1017000007D07B6A43F400737B627B681B681022FE
:10171000DA603B6A03F00403002B0BD07B6903F013
:101720000803002B06D07B681B680822DA60786803
:1017300000F02AF93B6A03F00203002B09D07B6812
:101740001B68DB6803F00303002B02D0786804F009
:10175000EFFA3B6A03F04003002B0CD03B6903F027
:101760001003002B07D07B6A43F480637B627B68A5
:101770001B6810221A613B6A03F02003002B0BD078
:101780003B6903F00803002B06D07B681B68082226
:101790001A61786800F002F93B6A03F01003002B2D
:1017A00009D07B681B681B6903F00303002B02D080
:1017B000786804F0FFFB3B6A03F40033002B0BD086
:1017C000FB6903F01003002B06D07B681B68102216
:1017D0005A60786800F0ECF83B6A03F48033002B21
:1017E0000BD0FB6903F00803002B06D07B681B6855
:1017F00008225A60786800F0E5F83B6A03F4004379
:10180000002B75D0FB6903F00403002B6CD03B6AFE
:1018100003F48073002B08D0FB6803F00103002B56
:1018200003D07B6A43F001037B623B6A03F40073DD
:10183000002B08D0FB6803F00203002B03D07B6A67
:1018400043F002037B623B6A03F48063002B08D001
:10185000FB6803F00403002B03D07B6A43F004030E
:101860007B623B6A03F40063002B3DD0FB6803F00E
:101870007003002B38D0FB6803F07003302B17D0B7
:10188000302B04D8102B09D0202B0CD024E0502B67
:1018900018D0602B1BD0402B0FD01DE07B6A43F08B
:1018A00008037B6218E07B6A43F010037B6213E05D
:1018B0007B6A43F020037B620EE07B6A43F04003C7
:1018C0007B6209E07B6A43F080037B6204E07B6A11
:1018D00043F480737B6200BF7B681B689A697B68F6
:1018E0001B6822F070029A617B681B6804225A60B0
:1018F0007B6A002B08D07B685A6A7B6A1A437B6834
:101900005A62786800F068F800BF2837BD4680BD8D
:1019100080B483B000AF786000BF0C37BD465DF87F
:10192000047B704780B483B000AF786000BF0C3791
:10193000BD465DF8047B704780B483B000AF78602B
:1019400000BF0C37BD465DF8047B704780B483B0A0
:1019500000AF786000BF0C37BD465DF8047B704770
:1019600080B483B000AF786000BF0C37BD465DF82F
:10197000047B704780B483B000AF786000BF0C3741
:10198000BD465DF8047B704780B483B000AF7860DB
:1019900000BF0C37BD465DF8047B704780B483B050
:1019A00000AF786000BF0C37BD465DF8047B704720
:1019B00080B483B000AF786000BF0C37BD465DF8DF
:1019C000047B704780B483B000AF786000BF0C37F1
:1019D000BD465DF8047B704780B483B000AF78608B
:1019E00000BF0C37BD465DF8047B704780B485B0FE
:1019F00000AF78607B6803F00703FB600C4BDB688B
:101A0000BB60BA684FF6FF031340BB60FB681A0265
:101A1000BB68134343F0BF6343F40033BB60044A25
:101A2000BB68D36000BF1437BD465DF8047B7047C8
:101A300000ED00E080B400AF044BDB681B0A03F04C
:101A400007031846BD465DF8047B704700ED00E0D3
:101A500080B483B000AF0346FB71FB7903F01F0233
:101A6000074997F907305B09012000FA02F241F8B3
:101A7000232000BF0C37BD465DF8047B704700BFD4
:101A800000E100E080B483B000AF03463960FB7131
:101A900097F90730002B0BDA3B68DAB20C49FB7977
:101AA00003F00F03043B1201D2B20B441A7609E093
:101AB0003B68DAB2074997F907301201D2B20B44FA
:101AC00083F8002300BF0C37BD465DF8047B7047E8
:101AD00000ED00E000E100E080B489B000AFF86004
:101AE000B9607A60FB6803F00703FB61FB69C3F12F
:101AF0000703042B28BF0423BB61FB690433062BB7
:101B000002D9FB69033B00E000237B614FF0FF3209
:101B1000BB6902FA03F3DA43BB681A407B699A4057
:101B20004FF0FF317B6901FA03F3D9437B680B4027
:101B3000134318462437BD465DF8047B7047000008
:101B400080B582B000AF78607B68013BB3F1807FE5
:101B500001D301230FE00A4A7B68013B53600F2148
:101B60004FF0FF30FFF78EFF054B00229A60044BC9
:101B700007221A60002318460837BD4680BD00BF03
:101B800010E000E080B582B000AF78607868FFF7C1
:101B90002DFF00BF0837BD4680BD80B586B000AFC1
:101BA0000346B9607A60FB7300237B61FFF742FF55
:101BB00078617A68B9687869FFF78EFF024697F90D
:101BC0000F3011461846FFF75DFF00BF1837BD46BE
:101BD00080BD80B582B000AF0346FB7197F9073036
:101BE0001846FFF735FF00BF0837BD4680BD80B5FA
:101BF00082B000AF78607868FFF7A2FF034618460E
:101C00000837BD4680BD000080B483B000AF786067
:101C10007B68042B06D1094B1B68084A43F0040378
:101C2000136005E0054B1B68044A23F004031360AE
:101C300000BF0C37BD465DF8047B704710E000E044
:101C400080B489B000AF7860396000237B610023E5
:101C50003B610023BB610023FB6165E10122FB695D
:101C600002FA03F37B613B681B687A6913403B61AE
:101C70003A697B699A4240F054813B685B68022B69
:101C800003D03B685B68122B23D1FB69DA087B68C1
:101C9000083253F82230BB61FB6903F007039B0055
:101CA0000F2202FA03F3DB43BA691340BB613B68BE
:101CB0001A69FB6903F007039B0002FA03F3BA6990
:101CC0001343BB61FB69DA087B680832B96943F8E2
:101CD00022107B681B68BB61FB695B00032202FA70
:101CE00003F3DB43BA691340BB613B685B6803F0F5
:101CF0000302FB695B0002FA03F3BA691343BB6199
:101D00007B68BA691A603B685B68012B0BD03B6843
:101D10005B68022B07D03B685B68112B03D03B68E4
:101D20005B68122B30D17B689B68BB61FB695B00F1
:101D3000032202FA03F3DB43BA691340BB613B6839
:101D4000DA68FB695B0002FA03F3BA691343BB610B
:101D50007B68BA699A607B685B68BB610122FB693A
:101D600002FA03F3DB43BA691340BB613B685B686B
:101D70001B0903F00102FB6902FA03F3BA6913437A
:101D8000BB617B68BA695A607B68DB68BB61FB69D1
:101D90005B00032202FA03F3DB43BA691340BB6121
:101DA0003B689A68FB695B0002FA03F3BA69134364
:101DB000BB617B68BA69DA603B685B6803F080539B
:101DC000002B00F0AE800023FB605C4B5B6C5B4A39
:101DD00043F480435364594B5B6C03F48043FB60D2
:101DE000FB68574AFB699B08023352F82330BB61FA
:101DF000FB6903F003039B000F2202FA03F3DB43AA
:101E0000BA691340BB617B684E4A934225D07B6818
:101E10004D4A93421FD07B684C4A934219D07B684D
:101E20004B4A934213D07B684A4A93420DD07B6859
:101E3000494A934207D07B68484A934201D106231E
:101E40000CE007230AE0052308E0042306E003234F
:101E500004E0022302E0012300E00023FA6902F01B
:101E6000030292009340BA691343BB613449FB6992
:101E70009B080233BA6941F82320394B1B68BB61C8
:101E80003B69DB43BA691340BB613B685B6803F4A1
:101E90008033002B03D0BA693B691343BB61304ADE
:101EA000BB6913602E4B5B68BB613B69DB43BA695E
:101EB0001340BB613B685B6803F40033002B03D025
:101EC000BA693B691343BB61254ABB695360244B24
:101ED0009B68BB613B69DB43BA691340BB613B68EC
:101EE0005B6803F48013002B03D0BA693B6913438A
:101EF000BB611B4ABB699360194BDB68BB613B69E3
:101F0000DB43BA691340BB613B685B6803F40013B1
:101F1000002B03D0BA693B691343BB61104ABB690C
:101F2000D360FB690133FB61FB690F2B7FF696AE33
:101F300000BF2437BD465DF8047B7047003802407F
:101F40000038014000000240000402400008024046
:101F5000000C024000100240001402400018024031
:101F6000003C014080B584B000AF786039607B6888
:101F7000002B01D10123CAE0674B1B6803F00F035C
:101F80003A689A420CD9644B3A68D2B21A70624BE2
:101F90001B6803F00F033A689A4201D00123B6E0B0
:101FA0007B681B6803F00203002B20D07B681B6852
:101FB00003F00403002B05D0584B9B68574A43F4A9
:101FC000E05393607B681B6803F00803002B05D087
:101FD000524B9B68514A43F4604393604F4B9B685C
:101FE00023F0F0027B689B684C4913438B607B684D
:101FF0001B6803F00103002B44D07B685B68012B56
:1020000007D1464B1B6803F40033002B19D1012381
:102010007DE07B685B68022B03D07B685B68032BE9
:1020200007D13E4B1B6803F00073002B09D101233D
:102030006DE03A4B1B6803F00203002B01D1012332
:1020400065E0364B9B6823F003027B685B6833498D
:1020500013438B60FEF760FEF8600AE0FEF75CFE5B
:102060000246FB68D31A41F28832934201D9032316
:102070004DE02A4B9B6803F00C027B685B689B0079
:102080009A42EBD1244B1B6803F00F033A689A4243
:102090000CD2214B3A68D2B21A701F4B1B6803F066
:1020A0000F033A689A4201D0012330E07B681B6835
:1020B00003F00403002B08D0184B9B6823F4E05274
:1020C0007B68DB68154913438B607B681B6803F0F2
:1020D0000803002B09D0114B9B6823F460427B68F6
:1020E0001B69DB000D4913438B6000F06FF801465C
:1020F0000A4B9B681B0903F00F03094AD35C21FAC2
:1021000003F3084A1360002004F05AF9002318462C
:102110001037BD4680BD00BF003C02400038024081
:10212000F06600080C00002080B400AF034B1B6871
:102130001846BD465DF8047B704700BF0C000020C8
:1021400080B500AFFFF7F0FF0146054B9B685B0BC6
:1021500003F00703034AD35C21FA03F3184680BD5A
:10216000003802400067000880B483B000AF786098
:1021700039607B680F221A60124B9B6803F00302E0
:102180007B685A600F4B9B6803F0F0027B689A6093
:102190000C4B9B6803F4E0527B68DA60094B9B6848
:1021A000DB0803F4E0527B681A61074B1B6803F0FD
:1021B0000F023B681A6000BF0C37BD465DF8047B18
:1021C000704700BF00380240003C0240F0B587B0C5
:1021D00000AF0023FB6000237B610023BB60002372
:1021E0007B6000233B619F4B9B6803F00C030C2B2F
:1021F00000F2308101A252F823F000BF3122000822
:1022000055240008552400085524000837220008EA
:102210005524000855240008552400083D220008D4
:102220005524000855240008552400084B230008B5
:102230008D4B3B6111E18D4B3B610EE1894B5B683E
:1022400003F03F03FB60874B5B6803F48003002BC4
:1022500023D0844B5B689B094FF0000440F2FF11D0
:102260004FF0000203EA010504EA02067F4A02FB7E
:1022700006F1002202FB05F20A447C49A5FB01019C
:1022800053181946FB684FF000041A462346FEF720
:102290008DFB03460C467B6149E0724B5B689B09F2
:1022A0004FF0000440F2FF114FF0000203EA010575
:1022B00004EA0206294632464FF000034FF00004BC
:1022C000540144EAD1644B0119462246491B62EB92
:1022D00006024FF000034FF00004940144EA9164B9
:1022E0008B015B1A64EB02044FF000014FF0000217
:1022F000E20042EA5372D9000B4614465B1944EBE4
:1023000006044FF000014FF00002A20242EA93528D
:1023100099020B46144618462146FB684FF000040C
:102320001A462346FEF742FB03460C467B614D4BA3
:102330005B681B0C03F0030301335B00BB607A692D
:10234000BB68B2FBF3F33B6187E0464B5B6803F08D
:102350003F03FB60434B5B6803F48003002B23D0F7
:10236000404B5B689B094FF0000440F2FF114FF0B7
:10237000000203EA010504EA02063C4A02FB06F1F8
:10238000002202FB05F20A443849A5FB010153185B
:102390001946FB684FF000041A462346FEF706FB79
:1023A00003460C467B6149E02E4B5B689B094FF06E
:1023B000000440F2FF114FF0000203EA010504EAB5
:1023C0000206294632464FF000034FF00004540144
:1023D00044EAD1644B0119462246491B62EB0602CE
:1023E0004FF000034FF00004940144EA91648B0124
:1023F0005B1A64EB02044FF000014FF00002E200B0
:1024000042EA5372D9000B4614465B1944EB0604AA
:102410004FF000014FF00002A20242EA93529902EB
:102420000B46144618462146FB684FF000041A4636
:102430002346FEF7BBFA03460C467B61094B5B68FB
:102440001B0F03F007037B607A697B68B2FBF3F331
:102450003B6102E0044B3B6100BF3B6918461C37FF
:10246000BD46F0BD003802400024F40040787D01F4
:1024700080B586B000AF786000233B617B681B6845
:1024800003F00103002B00F08380954B9B6803F061
:102490000C03042B19D0924B9B6803F00C03082B00
:1024A00006D18F4B5B6803F48003B3F5800F0CD02B
:1024B0008B4B9B6803F00C030C2B12D1884B5B6891
:1024C00003F48003B3F5800F0BD1854B1B6803F435
:1024D0000033002B5BD07B685B68002B57D1012356
:1024E00016E27B685B68B3F5803F06D17C4B1B68C6
:1024F0007B4A43F4803313601DE07B685B68B3F56F
:10250000A02F0CD1764B1B68754A43F480231360CF
:10251000734B1B68724A43F4803313600BE0704BBB
:102520001B686F4A23F4803313606D4B1B686C4A41
:1025300023F4802313607B685B68002B13D0FEF7C5
:10254000EBFB386108E0FEF7E7FB02463B69D31A74
:10255000642B01D90323DBE1614B1B6803F40033D7
:10256000002BF0D014E0FEF7D7FB386108E0FEF74F
:10257000D3FB02463B69D31A642B01D90323C7E17D
:10258000574B1B6803F40033002BF0D100E000BF71
:102590007B681B6803F00203002B6FD0504B9B68D5
:1025A00003F00C03002B17D04D4B9B6803F00C037A
:1025B000082B05D14A4B5B6803F48003002B0BD03A
:1025C000474B9B6803F00C030C2B1CD1444B5B68FE
:1025D00003F48003002B16D1414B1B6803F0020368
:1025E000002B05D07B68DB68012B01D001238FE134
:1025F0003B4B1B6823F0F8027B681B69DB00384902
:1026000013430B603AE07B68DB68002B20D0354B2E
:1026100001221A60FEF780FB386108E0FEF77CFBC0
:1026200002463B69D31A022B01D9032370E12C4BDC
:102630001B6803F00203002BF0D0294B1B6823F02A
:10264000F8027B681B69DB00254913430B6015E02A
:10265000244B00221A60FEF75FFB386108E0FEF7AA
:102660005BFB02463B69D31A022B01D903234FE1DE
:102670001B4B1B6803F00203002BF0D17B681B6827
:1026800003F00803002B37D07B685B69002B16D062
:10269000154B01221A60FEF73FFB386108E0FEF798
:1026A0003BFB02463B69D31A022B01D903232FE1DE
:1026B0000B4B5B6F03F00203002BF0D01CE00A4BC6
:1026C00000221A60FEF728FB38610FE0FEF724FBBA
:1026D00002463B69D31A022B08D9032318E100BF35
:1026E0000038024000004742800E47428A4B5B6F31
:1026F00003F00203002BE9D17B681B6803F004039D
:10270000002B00F097800023FB75834B1B6C03F0BC
:102710008053002B0FD10023FB607F4B1B6C7E4A44
:1027200043F0805313647C4B1B6C03F08053FB60BD
:10273000FB680123FB75794B1B6803F48073002B46
:1027400018D1764B1B68754A43F480731360FEF70B
:10275000E3FA386108E0FEF7DFFA02463B69D31A74
:10276000022B01D90323D3E06C4B1B6803F4807365
:10277000002BF0D07B689B68012B06D1664B1B6F4A
:10278000654A43F0010313671CE07B689B68052BD7
:102790000CD1614B1B6F604A43F0040313675E4B1F
:1027A0001B6F5D4A43F0010313670BE05A4B1B6F2D
:1027B000594A23F001031367574B1B6F564A23F006
:1027C000040313677B689B68002B15D0FEF7A4FAFF
:1027D00038610AE0FEF7A0FA02463B69D31A41F2DB
:1027E0008832934201D9032392E04B4B1B6F03F0D5
:1027F0000203002BEED014E0FEF78EFA38610AE0F7
:10280000FEF78AFA02463B69D31A41F288329342B4
:1028100001D903237CE0404B1B6F03F00203002B24
:10282000EED1FB7D012B05D13B4B1B6C3A4A23F0CB
:10283000805313647B689B69002B68D0364B9B6880
:1028400003F00C03082B60D07B689B69022B45D1F9
:10285000334B00221A60FEF75FFA386108E0FEF79A
:102860005BFA02463B69D31A022B01D903234FE0DE
:10287000294B1B6803F00073002BF0D17B68DA69E9
:102880007B681B6A1A437B685B6A9B011A437B68FF
:102890009B6A5B08013B1B041A437B68DB6A1B06CF
:1028A0001A437B681B6B1B071B4913434B601C4B74
:1028B00001221A60FEF730FA386108E0FEF72CFAC0
:1028C00002463B69D31A022B01D9032320E0124BA5
:1028D0001B6803F00073002BF0D018E0104B0022AF
:1028E0001A60FEF719FA386108E0FEF715FA024699
:1028F0003B69D31A022B01D9032309E0064B1B685D
:1029000003F00073002BF0D101E0012300E000236D
:1029100018461837BD4680BD0038024000700040A0
:102920006000474280B582B000AF78607B68002BC2
:1029300001D101231DE07B6893F83930DBB2002B15
:1029400006D17B68002283F83820786800F015F8FB
:102950007B68022283F839207B681A687B6804331D
:102960001946104600F05EF97B68012283F8392091
:10297000002318460837BD4680BD80B483B000AF41
:10298000786000BF0C37BD465DF8047B704780B4AB
:1029900083B000AF78607B681B68DA687B681B686F
:1029A00042F00102DA607B681B681A687B681B686A
:1029B00042F001021A60002318460C37BD465DF84C
:1029C000047B704780B582B000AF78607B681B687D
:1029D0001B6903F00203022B22D17B681B68DB68B2
:1029E00003F00203022B1BD17B681B686FF002020D
:1029F0001A617B6801221A767B681B689B6903F069
:102A00000303002B03D0786800F0EEF805E0786847
:102A100000F0E0F8786800F0F1F87B6800221A76A0
:102A20007B681B681B6903F00403042B22D17B68BD
:102A30001B68DB6803F00403042B1BD17B681B6855
:102A40006FF004021A617B6802221A767B681B68A9
:102A50009B6903F44073002B03D0786800F0C4F83E
:102A600005E0786800F0B6F8786800F0C7F87B6891
:102A700000221A767B681B681B6903F00803082B89
:102A800022D17B681B68DB6803F00803082B1BD18D
:102A90007B681B686FF008021A617B6804221A7653
:102AA0007B681B68DB6903F00303002B03D07868A5
:102AB00000F09AF805E0786800F08CF8786800F08B
:102AC0009DF87B6800221A767B681B681B6903F0FF
:102AD0001003102B22D17B681B68DB6803F0100306
:102AE000102B1BD17B681B686FF010021A617B688A
:102AF00008221A767B681B68DB6903F44073002B9D
:102B000003D0786800F070F805E0786800F062F8AB
:102B1000786800F073F87B6800221A767B681B687F
:102B20001B6903F00103012B0ED17B681B68DB6876
:102B300003F00103012B07D17B681B686FF00102D2
:102B40001A61786803F0EEFA7B681B681B6903F072
:102B50008003802B0ED17B681B68DB6803F0800349
:102B6000802B07D17B681B686FF080021A61786840
:102B700000F00CF97B681B681B6903F04003402BD5
:102B80000ED17B681B68DB6803F04003402B07D144
:102B90007B681B686FF040021A61786800F038F8B3
:102BA0007B681B681B6903F02003202B0ED17B6818
:102BB0001B68DB6803F02003202B07D17B681B68B0
:102BC0006FF020021A61786800F0D6F800BF08376D
:102BD000BD4680BD80B483B000AF786000BF0C37C5
:102BE000BD465DF8047B704780B483B000AF786069
:102BF00000BF0C37BD465DF8047B704780B483B0DE
:102C000000AF786000BF0C37BD465DF8047B7047AD
:102C100080B483B000AF786000BF0C37BD465DF86C
:102C2000047B704780B485B000AF786039600023C2
:102C3000FB607B681B68FB607B68444A934213D04F
:102C40007B68B3F1804F0FD07B68414A93420BD031
:102C50007B68404A934207D07B683F4A934203D047
:102C60007B683E4A934201D1012300E00023002B00
:102C700008D0FB6823F07003FB603B685B68FA6870
:102C80001343FB607B68314A93422BD07B68B3F1DE
:102C9000804F27D07B682E4A934223D07B682D4AF1
:102CA00093421FD07B682C4A93421BD07B682B4AEF
:102CB000934217D07B682A4A934213D07B68294AF3
:102CC00093420FD07B68284A93420BD07B68274AF7
:102CD000934207D07B68264A934203D07B68254AFB
:102CE000934201D1012300E00023002B08D0FB68B0
:102CF00023F44073FB603B68DB68FA681343FB60B6
:102D00007B68FA681A603B689A687B68DA623B689D
:102D10001A687B689A627B680C4A934203D07B688E
:102D20000E4A934201D1012300E00023002B03D07F
:102D30003B681A697B681A637B6801225A6100BF8D
:102D40001437BD465DF8047B704700BF00000140AA
:102D50000004004000080040000C00400004014056
:102D6000004001400044014000480140001800407C
:102D7000001C00400020004080B483B000AF7860A9
:102D800000BF0C37BD465DF8047B704780B483B04C
:102D900000AF786000BF0C37BD465DF8047B70471C
:102DA00080B485B000AF0346FB800023FB60B7F919
:102DB0000630842B05D0B7F90620FB681344033393
:102DC000FB60FB6818461437BD465DF8047B70470E
:102DD00080B500AF00F05AFA0023184680BDF0B568
:102DE00087B002AF786039607B685C687B681D687B
:102DF0007B681B699EB27B68B3F908301846FFF701
:102E0000CFFF024607F10C03019300923B68324664
:102E10002946204600F0DDF80346012B01D00023AF
:102E200000E0FB6818461437BD46F0BD80B584B09D
:102E300000AF78607B68FB60FB68002B01D0FB680B
:102E400000E00123184600F0EDF900231846103782
:102E5000BD4680BD80B500AF00F0E8FC0346012B05
:102E600001D000F0F9FE00BF80BD80B483B000AF98
:102E700078607B6803F108027B685A607B684FF0DA
:102E8000FF329A607B6803F108027B68DA607B6836
:102E900003F108027B681A617B6800221A6000BF98
:102EA0000C37BD465DF8047B704780B483B000AF3B
:102EB00078607B6800221A6100BF0C37BD465DF860
:102EC000047B704780B485B000AF786039607B6860
:102ED0005B68FB603B68FA685A60FB689A683B680D
:102EE0009A60FB689B683A685A60FB683A689A6027
:102EF0003B687A681A617B681B685A1C7B681A6099
:102F000000BF1437BD465DF8047B704780B485B0C0
:102F100000AF786039603B681B68BB60BB68B3F189
:102F2000FF3F03D17B681B69FB600CE07B680833C3
:102F3000FB6002E0FB685B68FB60FB685B681B682A
:102F4000BA689A42F6D2FB685A683B685A603B6896
:102F50005B683A689A603B68FA689A60FB683A680E
:102F60005A603B687A681A617B681B685A1C7B68E8
:102F70001A6000BF1437BD465DF8047B704780B40B
:102F800085B000AF78607B681B69FB607B685B681D
:102F90007A6892689A607B689B687A6852685A601F
:102FA000FB685B687A689A4203D17B689A68FB6821
:102FB0005A607B6800221A61FB681B685A1EFB6816
:102FC0001A60FB681B6818461437BD465DF8047B21
:102FD000704780B58CB004AFF860B9603B601346B1
:102FE000FB80FB889B00184600F07CFE78617B69C3
:102FF000002B0ED0542000F075FEF861FB69002B09
:1030000003D0FB697A691A6305E0786900F02CFF48
:1030100001E00023FB61FB69002B13D0FA88002339
:103020000393FB690293FB6A0193BB6A00933B68BD
:10303000B968F86800F00EF8F86900F089F8012323
:10304000BB6102E04FF0FF33BB61BB69184620371C
:10305000BD4680BD80B588B000AFF860B9607A60C9
:103060003B603B6B1A6B7B6803F18043013B9B0029
:103070001344BB61BB6923F00703BB61BB6903F069
:103080000703002B09D04FF0500383F31188BFF3DF
:103090006F8FBFF34F8F7B61FEE70023FB6112E070
:1030A000BA68FB69134419783A6BFB6913443433EB
:1030B0000A461A70BA68FB6913441B78002B06D0C5
:1030C000FB690133FB61FB690F2BE9D900E000BF0D
:1030D0003B6B002283F84320BB6A0F2B01D90F23DF
:1030E000BB623B6BBA6ADA623B6BBA6A5A643B6B8F
:1030F00000229A643B6B04331846FFF7D6FE3B6B05
:1031000018331846FFF7D1FE3B6B3A6B1A61BB6A66
:10311000C3F110023B6B9A613B6B3A6B5A623B6B9B
:103120000022DA643B6B002283F850203A68F96889
:10313000B86900F0FFFB02463B6B1A60FB6A002B8C
:1031400002D0FB6A3A6B1A6000BF2037BD4680BDD3
:1031500080B582B000AF786000F0F2FC2A4B1B68AB
:103160000133294A1360294B1B68002B09D1274AD8
:103170007B681360244B1B68012B10D100F0A4FA6C
:103180000DE0234B1B68002B09D1204B1B68DA6A2A
:103190007B68DB6A9A4202D81C4A7B6813601D4B2D
:1031A0001B6801331B4A13607B68DB6A01229A406B
:1031B000194B1B681343184A13607B68DA6A13467D
:1031C0009B0013449B00154A1A447B68043319463C
:1031D0001046FFF777FE00F0E1FC0D4B1B68002B5B
:1031E0000ED00A4B1B68DA6A7B68DB6A9A4207D208
:1031F0000B4B4FF080521A60BFF34F8FBFF36F8FAE
:1032000000BF0837BD4680BDE00100202C00002033
:10321000EC010020FC010020E8010020300000202B
:1032200004ED00E080B584B000AF78600023FB605F
:103230007B68002B16D0134B1B68002B09D04FF076
:10324000500383F31188BFF36F8FBFF34F8FBB60C1
:10325000FEE700F061F80021786800F005FB00F05F
:1032600069F8F860FB68002B07D1074B4FF08052DC
:103270001A60BFF34F8FBFF36F8F00BF1037BD468B
:1032800080BD00BF0802002004ED00E080B586B0DC
:1032900002AF1B4B019300230093002380221949A6
:1032A0001948FFF796FEF860FB68012B15D14FF027
:1032B000500383F31188BFF36F8FBFF34F8FBB6051
:1032C000124B4FF0FF321A60114B01221A60114B62
:1032D00000221A6000F0A8FB0DE0FB68B3F1FF3F8D
:1032E00009D14FF0500383F31188BFF36F8FBFF301
:1032F0004F8F7B60FEE700BF1037BD4680BD00BF2B
:1033000004020020A0660008993600080002002090
:10331000EC010020E401002080B400AF044B1B68E6
:103320000133034A136000BFBD465DF8047B70475C
:103330000802002080B584B000AF0023FB600023AA
:10334000BB60414B1B68002B09D14FF0500383F346
:103350001188BFF36F8FBFF34F8F3B60FEE700F024
:10336000EFFB394B1B68013B374A1360364B1B6838
:10337000002B61D1354B1B68002B5DD02EE0344B08
:10338000DB68DB68FB60FB6818331846FFF7F7FD66
:10339000FB6804331846FFF7F2FDFB68DB6A012285
:1033A0009A402C4B1B6813432A4A1360FB68DA6A65
:1033B00013469B0013449B00274A1A44FB680433BE
:1033C00019461046FFF77EFDFB68DA6A234B1B683F
:1033D000DB6A9A4202D3224B01221A601C4B1B6803
:1033E000002BCCD1FB68002B01D000F0F9F91D4B6C
:1033F0001B687B607B68002B10D000F037F8034619
:10340000002B02D0164B01221A607B68013B7B60C7
:103410007B68002BF1D1134B00221A60104B1B6804
:10342000002B09D00123BB600F4B4FF080521A6074
:10343000BFF34F8FBFF36F8F00F0B0FBBB68184630
:103440001037BD4680BD00BF08020020E00100200B
:10345000A0010020E8010020300000202C00002006
:10346000F4010020F001002004ED00E080B586B0FA
:1034700000AF00237B61504B1B68002B40F08C8019
:103480004E4B1B6801333B614C4A3B6913603B69FF
:10349000002B1FD14A4B1B681B68002B09D04FF033
:1034A000500383F31188BFF36F8FBFF34F8F3B60DF
:1034B000FEE7434B1B68FB60424B1B68404A1360AE
:1034C000404AFB681360404B1B6801333E4A13605F
:1034D00000F086F93D4B1B683A699A424DD3384B50
:1034E0001B681B68002B01D1012300E00023002B87
:1034F00004D0364B4FF0FF321A603EE0304B1B6871
:10350000DB68DB68BB60BB685B687B603A697B68D3
:103510009A4203D22D4A7B6813602EE0BB680433C5
:103520001846FFF72CFDBB689B6A002B04D0BB68D4
:1035300018331846FFF723FDBB68DB6A01229A4067
:10354000234B1B681343224A1360BB68DA6A134695
:103550009B0013449B001F4A1A44BB68043319465E
:103560001046FFF7AFFCBB68DA6A1B4B1B68DB6ACF
:103570009A42B4D301237B61B1E7174B1B68DA6A27
:10358000144913469B0013449B000B441B68012BFA
:1035900007D901237B6104E0104B1B6801330F4AFC
:1035A00013600F4B1B68002B01D001237B617B69EB
:1035B00018461837BD4680BD08020020E4010020EF
:1035C000980100209C010020F8010020000200204A
:1035D000E8010020300000202C000020F001002035
:1035E000F401002080B487B000AF264B1B68002B8D
:1035F00003D0254B01221A603EE0234B00221A60C3
:10360000224B1B68FB60FB68B3FA83F3FB72FB7A07
:10361000C3F11F037B611E497A6913469B00134463
:103620009B000B441B68002B09D14FF0500383F320
:103630001188BFF36F8FBFF34F8F7B60FEE77A690E
:1036400013469B0013449B00114A13443B613B69A2
:103650005B685A683B695A603B695A683B69083342
:103660009A4204D13B695B685A683B695A603B697E
:103670005B68DB68074A136000BF1C37BD465DF816
:10368000047B704708020020F4010020E8010020BC
:10369000300000202C00002080B582B000AF7860A0
:1036A00000F052F8064B1B68012BF9D9054B4FF07F
:1036B00080521A60BFF34F8FBFF36F8FF0E700BFE8
:1036C0003000002004ED00E080B582B000AF0023A0
:1036D0007B600CE07A6813469B0013449B00124AFF
:1036E00013441846FFF7C1FB7B6801337B607B689E
:1036F0000F2BEFD90D48FFF7B8FB0D48FFF7B5FBCF
:103700000C48FFF7B2FB0C48FFF7AFFB0B48FFF785
:10371000ACFB0B4B054A1A600A4B054A1A6000BF06
:103720000837BD4680BD00BF30000020700100207A
:1037300084010020A0010020B4010020CC01002061
:10374000980100209C01002080B582B000AF28E0E5
:10375000FFF7E2FD174B1B68002B0CBF0123002372
:10376000DBB27B60FFF7E6FD7B68002B19D100F030
:10377000E7F9104BDB68DB683B603B6804331846B5
:10378000FFF7FDFB0C4B1B68013B0B4A13600B4B17
:103790001B68013B094A136000F000FA386800F02A
:1037A0000FF8064B1B68002BD2D100BF0837BD466F
:1037B00080BD00BFB4010020E0010020C80100204E
:1037C00080B582B000AF78607B681B6B184600F054
:1037D0004BFB786800F048FB00BF0837BD4680BD52
:1037E00080B483B000AF0F4B1B681B68002B01D166
:1037F000012300E00023002B04D00B4B4FF0FF32DD
:103800001A6008E0074B1B68DB68DB687B607B683D
:103810005B68054A136000BF0C37BD465DF8047B4A
:10382000704700BF980100200002002080B483B0E0
:1038300000AF0B4B1B68002B02D101237B6008E01B
:10384000084B1B68002B02D102237B6001E00023A0
:103850007B607B6818460C37BD465DF8047B70477B
:10386000EC0100200802002080B584B000AF786031
:103870003960294B1B68FB60284B1B6804331846D2
:10388000FFF77DFB0346002B0BD1244B1B68DB6A43
:10389000012202FA03F3DA43214B1B681340204A4A
:1038A00013607B68B3F1FF3F0AD13B68002B07D060
:1038B0001A4B1B68043319461A48FFF703FB26E02E
:1038C000FA687B681344BB60144B1B68BA685A6083
:1038D000BA68FB689A4209D2134B1A680F4B1B68EF
:1038E000043319461046FFF711FB10E00F4B1A681E
:1038F0000A4B1B68043319461046FFF707FB0C4BB5
:103900001B68BA689A4202D2094ABB68136000BFBA
:103910001037BD4680BD00BFE40100202C00002010
:10392000E8010020CC0100209C010020980100202B
:103930000002002080B485B000AFF860B9607A6002
:10394000FB68043BFB60FB684FF080721A60FB6809
:10395000043BFB60BB6823F00102FB681A60FB6854
:10396000043BFB600C4AFB681A60FB68143BFB607D
:103970007A68FB681A60FB68043BFB60FB686FF0C9
:1039800002021A60FB68203BFB60FB681846143794
:10399000BD465DF8047B70479D39000880B483B054
:1039A00000AF0C4B1B68B3F1FF3F09D04FF0500341
:1039B00083F31188BFF36F8FBFF34F8F7B60FEE7F8
:1039C0004FF0500383F31188BFF36F8FBFF34F8F16
:1039D0003B60FEE70800002000000000000000003F
:1039E000074B19680868B0E8F04F80F30988BFF307
:1039F0006F8F4FF0000080F311887047AFF30080A5
:103A00002C00002000BF00BF06480068006880F35B
:103A1000088862B661B6BFF34F8FBFF36F8F00DFC8
:103A200000BF00BF08ED00E080B586B000AF3B4BA3
:103A30001B683B4A934209D14FF0500383F311882E
:103A4000BFF36F8FBFF34F8F3B61FEE7334B1B68B4
:103A5000344A934209D14FF0500383F31188BFF3E6
:103A60006F8FBFF34F8FFB60FEE72F4B7B617B694E
:103A70001B78DBB2BB607B69FF221A707B691B7805
:103A8000DBB2FB71FB79DBB203F05003DAB2274BF8
:103A90001A70274B07221A6009E0254B1B68013B6F
:103AA000234A1360FB79DBB25B00DBB2FB71FB796D
:103AB000DBB203F08003802BEFD01D4B1B681B0291
:103AC0001B4A13601A4B1B6803F4E063184A136027
:103AD000BB68DAB27B691A70164B1B68154A43F44F
:103AE00070031360134B1B68124A43F0704313605A
:103AF00000F0D2F8104B00221A6000F0E9F80F4BEA
:103B00001B680E4A43F040431360FFF77DFFFFF749
:103B100045FF002318461837BD4680BD00ED00E084
:103B200071C20F4170C20F4100E400E00C0200209E
:103B30001002002020ED00E00800002034EF00E03B
:103B400080B483B000AF4FF0500383F31188BFF30C
:103B50006F8FBFF34F8F7B600E4B1B6801330D4A95
:103B600013600C4B1B68012B0ED10B4B1B68DBB297
:103B7000002B09D04FF0500383F31188BFF36F8FF0
:103B8000BFF34F8F3B60FEE700BF0C37BD465DF8CB
:103B9000047B70470800002004ED00E080B483B08F
:103BA00000AF114B1B68002B09D14FF0500383F37A
:103BB0001188BFF36F8FBFF34F8F7B60FEE70A4B17
:103BC0001B68013B084A1360074B1B68002B04D19C
:103BD00000233B603B6883F3118800BF0C37BD4670
:103BE0005DF8047B704700BF080000200000000063
:103BF000EFF30980BFF36F8F154B1A681EF0100F9B
:103C000008BF20ED108A20E9F04F10604DF8043D08
:103C10004FF0500080F31188BFF34F8FBFF36F8FC9
:103C2000FFF7E0FC4FF0000080F3118808BC196832
:103C30000868B0E8F04F1EF0100F08BFB0EC108A13
:103C400080F30988BFF36F8F704700BFAFF3008028
:103C50002C00002000BF00BF80B582B000AF4FF045
:103C6000500383F31188BFF36F8FBFF34F8F7B60D7
:103C7000FFF7FCFB0346002B03D0064B4FF08052AE
:103C80001A6000233B603B6883F3118800BF08374C
:103C9000BD4680BD04ED00E080B400AF084B1B685A
:103CA000084AA2FB03239B09074A013B1360074B09
:103CB00007221A6000BFBD465DF8047B704700BF55
:103CC0000C000020D34D621014E000E010E000E092
:103CD000DFF80C00016841F470010160704700BF1B
:103CE00088ED00E080B58AB000AF78600023FB610A
:103CF000FFF712FB574B1B68002B01D100F00CF9AA
:103D0000554B1A687B681340002B40F08C807B6811
:103D1000002B1CD008227B6813447B607B6803F077
:103D20000703002B13D07B6823F0070308337B6065
:103D30007B6803F00703002B09D04FF0500383F397
:103D40001188BFF36F8FBFF34F8F7B61FEE77B68F6
:103D5000002B68D0414B1B687A689A4263D8404B6D
:103D60003B623F4B1B687B6204E07B6A3B627B6A81
:103D70001B687B627B6A5B687A689A4203D97B6ABC
:103D80001B68002BF1D1334B1B687A6A9A424AD0E8
:103D90003B6A1B6808221344FB617B6A1A683B6A12
:103DA0001A607B6A5A687B68D21A08235B009A42C1
:103DB0001ED97A6A7B681344BB61BB6903F00703B1
:103DC000002B09D04FF0500383F31188BFF36F8F9E
:103DD000BFF34F8F3B61FEE77B6A5A687B68D21A5C
:103DE000BB695A607B6A7A685A60B86900F0F6F875
:103DF0001A4B1A687B6A5B68D31A184A1360174B10
:103E00001A68184B1B689A4203D2144B1B68154A58
:103E100013607B6A5A68104B1B681A437B6A5A60AE
:103E20007B6A00221A60FFF785FAFB6903F007033B
:103E3000002B09D04FF0500383F31188BFF36F8F2D
:103E4000BFF34F8FFB60FEE7FB6918462837BD467E
:103E500080BD00BF1C3E0020283E0020203E0020E8
:103E6000143E0020243E002080B586B000AF78606C
:103E70007B687B617B68002B46D008235B427A69B4
:103E800013447B617B693B613B695A68204B1B682B
:103E90001340002B09D14FF0500383F31188BFF377
:103EA0006F8FBFF34F8FFB60FEE73B691B68002BF2
:103EB00009D04FF0500383F31188BFF36F8FBFF326
:103EC0004F8FBB60FEE73B695A68114B1B6813407C
:103ED000002B19D03B691B68002B15D13B695A6830
:103EE0000B4B1B68DB431A403B695A60FFF714FA1F
:103EF0003B695A68074B1B681344064A13603869CC
:103F000000F06CF8FFF716FA00BF1837BD4680BD09
:103F1000283E0020203E002080B485B000AF4FF442
:103F20007053BB60274BFB60FB6803F00703002B5B
:103F30000CD0FB680733FB60FB6823F00703FB60D2
:103F4000BA68FB68D31A1F4A1344BB60FB687B60E6
:103F50001D4A7B6813601C4B00225A607B68BA685C
:103F60001344FB600822FB689B1AFB60FB6823F08C
:103F70000703FB60FB68154A1360144B1B680022A3
:103F80005A60124B1B6800221A607B683B603B68DA
:103F9000FA68D21A3B685A600C4B1A683B681A6080
:103FA0003B685B680A4A13603B685B68094A1360B8
:103FB000094B4FF000421A6000BF1437BD465DF850
:103FC000047B704714020020143E00201C3E002099
:103FD000243E0020203E0020283E002080B485B0F2
:103FE00000AF7860284BFB6002E0FB681B68FB6059
:103FF000FB681B687A689A42F7D8FB68BB60FB686D
:104000005B68BA6813447A689A4208D1FB685A68B8
:104010007B685B681A44FB685A60FB687B607B685E
:10402000BB607B685B68BA681A44FB681B689A428D
:1040300018D1FB681A68154B1B689A420DD07B6833
:104040005A68FB681B685B681A447B685A60FB68A7
:104050001B681A687B681A6008E00C4B1A687B685A
:104060001A6003E0FB681A687B681A60FA687B686C
:104070009A4202D0FB687A681A6000BF1437BD46C6
:104080005DF8047B704700BF143E00201C3E0020FA
:1040900080B500AF0649074800F0D5F80649054845
:1040A00000F0D1F80549034800F035F900BF80BDA4
:1040B000003F0020883F0020303F0020603F00206C
:1040C00080B500AF144800F08EF903461946134836
:1040D00000F095F9104800F086F90346194610489B
:1040E00000F00FFA0C4800F07EF9034619460D481F
:1040F00000F085F9084800F076F9034619460A48A9
:1041000000F0FFF9044800F06EF90346194607482D
:1041100000F075F900BF80BD284700204846002008
:1041200078460020A0460020D0460020F846002017
:1041300090B589B006AF7860084611461A46034626
:10414000FB700B46BB7013467B7078687C78BA783E
:10415000F97897F82C300593BB6A04937B6A039334
:104160003B6A0293FB6901933B8B0093234600F06B
:104170007DFA7B683A8B1146184600F0AAFA7B68F4
:1041800018460C37BD4690BD90B589B006AF786033
:10419000084611461A460346FB700B46BB70134691
:1041A0007B7078687C78BA78F97897F82C3005932A
:1041B000BB6A04937B6A03933B6A0293FB69019396
:1041C0003B7E0093234600F0B7FA7B683A7E1146A7
:1041D000184600F0E4FA7B6818460C37BD4690BDDF
:1041E00080B485B000AFF860084611461A46034611
:1041F0007B810B463B811346FB71FB687A891A80F1
:10420000FB683A895A80FB68FA791A71FB683A7E32
:104210005A71FB68BA8BDA80FB683A8C1A81FB68AA
:1042200097F824209A72FB683A8D9A81FB68BA8DC0
:10423000DA81FB6800221A61FB6818461437BD4614
:104240005DF8047B70472DE9F04385B000AF7860DE
:1042500039603B68184600F0D6FA0346FB733B68AA
:10426000184600F0DCFA0346BB7307F10E0318464C
:1042700000F0EDFA02460B46F97BA1F12006C1F1F0
:10428000200003FA01F902FA06F649EA060922FAC1
:1042900000F049EA000902FA01F86FEA08006FEA43
:1042A00009017B68D3E9068908EA000209EA0103EB
:1042B0007968C1E906237B68D3E906893B6818461B
:1042C00000F0B9FA03461A4607F10E0319461046E4
:1042D00000F0CFFA02460B46F97BA1F12006C1F1AE
:1042E000200003FA01F502FA06F6354322FA00F03F
:1042F000054302FA01F448EA040249EA05031C46B0
:1043000013467A68C2E9063400BF00231846143702
:10431000BD46BDE8F0832DE9F04385B000AF78607D
:1043200039603B68184600F0B9FA0346FB733B68F6
:10433000184600F0BFFA0346BB7307F10E03184698
:1043400000F085FA02460B46F97BA1F12006C1F187
:10435000200003FA01F902FA06F649EA060922FAF0
:1043600000F049EA000902FA01F86FEA08006FEA72
:1043700009017B68D3E9068908EA000209EA01031A
:104380007968C1E906237B68D3E906893B6818464A
:1043900000F09CFA03461A4607F10E031946104630
:1043A00000F067FA02460B46F97BA1F12006C1F145
:1043B000200003FA01F502FA06F6354322FA00F06E
:1043C000054302FA01F448EA040249EA05031C46DF
:1043D00013467A68C2E9063400BF00231846143732
:1043E000BD46BDE8F08380B483B000AF78607B68E1
:1043F000183318460C37BD465DF8047B70472DE92D
:10440000F04385B000AF786039600023FB817868A5
:1044100000F069FA03467B73786800F0F4F903460C
:104420003B73786800F0FBF90346FB727B681B7EE8
:10443000002B25D13B68D3E900343A7BC2F1200040
:10444000A2F1200123FA02F804FA00F048EA000879
:1044500024FA01F148EA010824FA02F91FFA88F265
:10446000FB7A012101FA03F39BB2013B9BB213409B
:10447000FB81FB891946786800F02BF900233BE0AB
:104480007B681B7E012B35D13B68D3E90023397B48
:10449000C1F12006A1F1200022FA01F403FA06F688
:1044A000344323FA00F0044323FA01F5A2B2FB7A65
:1044B000012101FA03F39BB2013B9BB21340FB8144
:1044C000FA89FB7A013B42FA03F3012B0BD100235B
:1044D0003B813B89DA43FB7A02FA03F33B81FA8999
:1044E0003B891343FB81FB891946786800F0F1F89A
:1044F000012301E04FF0FF3318461437BD46BDE8F5
:10450000F0832DE9F04385B000AF78603960002377
:10451000FB73786800F0F3F90346BB73786800F02A
:10452000BDF903467B73786800F0C4F903463B731A
:104530007B681B7D002B25D13B68D3E900347A7B57
:10454000C2F12000A2F1200123FA02F804FA00F0DF
:1045500048EA000824FA01F148EA010824FA02F9BD
:104560005FFA88F23B7B012101FA03F3DBB2013BE6
:10457000DBB21340FB73FB7B1946786800F00FF940
:1045800000233BE07B681B7D012B35D13B68D3E9E1
:104590000023797BC1F12006A1F1200022FA01F469
:1045A00003FA06F6344323FA00F0044323FA01F534
:1045B000E2B23B7B012101FA03F3DBB2013BDBB248
:1045C0001340FB73FA7B3B7B013B42FA03F3012B65
:1045D0000BD10023FB72FB7ADA433B7B02FA03F335
:1045E000FB72FA7BFB7A1343FB73FB7B19467868FB
:1045F00000F0D5F8012301E04FF0FF3318461437DF
:10460000BD46BDE8F08380B485B000AFF8600846D1
:1046100011461A4603467B810B463B811346FB71CC
:10462000FB687A891A80FB683A895A80FB68FA79B4
:104630001A71FB683A7E5A71FB68BA8BDA80FB68A4
:104640003A8C1A81FB6897F824209A72FB683A8D9D
:104650009A81FB68BA8DDA81FB6800221A61FB68D7
:1046600018461437BD465DF8047B704780B582B0AC
:1046700000AF7860084611461A460346FB700B46A9
:10468000BB7013467B707B68FA781A707B68BA78C7
:104690005A707B687A789A707B683A8A9A807B68CD
:1046A0007A699A607B68BA69DA607B68FA691A612C
:1046B0007B683A6A5A617B6897F824201A763B8AAD
:1046C0001946786800F005F87B6818460837BD463B
:1046D00080BDB0B582B000AF78600B467B807B6850
:1046E0007A881A857B881846FBF7D4FE04460D4667
:1046F0007B689B681846FBF7CDFE02460B462046BA
:104700002946FBF741FF03460C4625461C467B68BD
:10471000DB681846FBF7CEFE02460B4620462946CC
:10472000FBF77CFD03460C467A68C2E90834002397
:1047300018460837BD46B0BD80B582B000AF78607E
:10474000084611461A460346FB700B46BB701346DB
:104750007B707B68FA781A707B68BA785A707B68CD
:104760007A789A707B683A7CDA707B687A695A60EA
:104770007B68BA699A607B68FA69DA607B683A6A32
:104780001A617B6897F824201A753B7C1946786873
:1047900000F005F87B6818460837BD4680BDB0B507
:1047A00082B000AF78600B46FB707B68FA7883F8C4
:1047B0002020FB781846FBF76DFE04460D467B680B
:1047C0005B681846FBF766FE02460B462046294604
:1047D000FBF7DAFE03460C4625461C467B689B68C1
:1047E0001846FBF767FE02460B4620462946FBF7B4
:1047F00015FD03460C467A68C2E9063400231846C4
:104800000837BD46B0BD80B483B000AF78607B6828
:104810001B7818460C37BD465DF8047B704780B4A2
:1048200083B000AF78607B689B7818460C37BD4634
:104830005DF8047B704780B483B000AF78607B681C
:104840001B8D18460C37BD465DF8047B704790B44D
:1048500082B000AF78607B681B781A4601239340D2
:10486000013B4FEAE374184621460837BD4690BC29
:10487000704790B482B000AF786039603B681B78B5
:104880001A46012393405A1E7B6813404FEAE37493
:10489000184621460837BD4690BC704780B483B0A7
:1048A00000AF78607B681B7818460C37BD465DF812
:1048B000047B704780B483B000AF78607B689B78DE
:1048C00018460C37BD465DF8047B704780B483B052
:1048D00000AF78607B6893F8203018460C37BD46EF
:1048E0005DF8047B704780B483B000AF78607B686C
:1048F0005B7818460C37BD465DF8047B704780B482
:1049000083B000AF78607B685B7818460C37BD4693
:104910005DF8047B7047000080B588B006AF786012
:1049200039607B68012B40F030863B684FF6FF72A0
:10493000934240F02A86002305934FF6FF730493B9
:104940000023039300230293012301936423009324
:1049500010231F221021B948FFF7EAFB002305931B
:10496000FF23049300230393002302930123019365
:104970006423009308230F220821B148FFF704FCA9
:10498000002305934FF6FF73049300230393002342
:104990000293012301936423009310232F222021EB
:1049A000A848FFF7C5FB00230593FF2304930023CA
:1049B00003930023029301230193642300930823AC
:1049C00007220021A048FFF7DFFB002305930A23FD
:1049D00004930A2303930A2302936423019300237D
:1049E0000093062300224FF4C2619848FFF7F8FBBA
:1049F000002305934FF6FF730493002303930023D2
:104A00000293012301936423009310230F220021BA
:104A10008F48FFF78DFB002305934FF6FF73049338
:104A20000023039300230293012301936423009343
:104A300010231F2210218748FFF77AFB00230593DC
:104A4000FF23049300230393002302930123019384
:104A5000642300930823272220217F48FFF794FB3B
:104A6000002305930A2304930A2303930A23029342
:104A70006423019300230093052300224FF4E06197
:104A80007648FFF7ADFB002305934FF6FF730493C1
:104A900000230393002302930123019364230093D3
:104AA00010232F2220216E48FFF742FB002305939D
:104AB000FF23049300230393002302930123019314
:104AC0006423009308230F2208216648FFF75CFB4C
:104AD000002305934FF6FF730493002303930023F1
:104AE0000293012301936423009310231F221021BA
:104AF0005D48FFF71DFB00230593FF23049300236C
:104B0000039300230293012301936423009308235A
:104B1000072200215548FFF737FB002305934FF686
:104B2000FF73049300230393002302930123019353
:104B30006423009310233F2230214D48FFF7F8FAF9
:104B4000002305930A2304930A2303930A23029361
:104B50006423019300230093082300224FF4E261B1
:104B60004448FFF73DFB002305934FF6FF73049382
:104B700000230393002302930123019364230093F2
:104B800010230F2200213C48FFF7D2FA002305939F
:104B90004FF6FF7304930023039300230293012332
:104BA00001936423009310231F2210213348FFF741
:104BB000BFFA00230593FF230493002303930023EC
:104BC00002930123019364230093082327222021C9
:104BD0002B48FFF7D9FA002305930A2304930A23ED
:104BE00003930A2302936423019300230093052374
:104BF000002240F201712348FFF7F2FA00230593E7
:104C00004FF6FF73049300230393002302930123C1
:104C100001936423009310232F2220211A48FFF7C9
:104C200087FA00230593FF230493002303930023B3
:104C3000029301230193642328E000BF303E00204B
:104C4000603E0020883E0020B83E0020E03E00206C
:104C5000003F0020303F0020603F0020883F0020C0
:104C6000A83F0020D83F0020004000203040002016
:104C70005840002088400020A8400020D840002054
:104C800008410020304100205041002000930823BB
:104C90000F220821B848FFF777FA002305934FF653
:104CA000FF730493002303930023029301230193D2
:104CB0006423009310231F221021B048FFF738FA15
:104CC00000230593FF2304930023039300230293FF
:104CD0000123019364230093082307220021A8489D
:104CE000FFF752FA002305934FF6FF730493002356
:104CF0000393002302930123019364230093102361
:104D00003F2230219F48FFF713FA002305930A231F
:104D100004930A2303930A23029364230193002339
:104D200000930823002240F211719748FFF758FAC8
:104D3000002305930023049300230393002302938D
:104D400001230193642300930823072200218F4845
:104D5000FFF71AFA002305930A2304930A23039307
:104D60000A2302936423019300230093012300226A
:104D70004FF454718648FFF746FC00230593002347
:104D800004930023039300230293012301936423DC
:104D900000930823072200217E48FFF7F5F900233E
:104DA00005930A2304930A2303930A23029364239B
:104DB0000193002300930123002240F2253176481D
:104DC000FFF721FC002305934FF6FF7304930023A4
:104DD0000393002302930123019364230093102380
:104DE0001F2210216D48FFF7A3F900230593FF232D
:104DF000049300230393002302930123019364236C
:104E0000009308230F2208216548FFF7BDF900230E
:104E100005934FF6FF73049300230393002302933B
:104E2000012301936423009310232F2220215D4846
:104E3000FFF77EF900230593FF23049300230393D8
:104E40000023029301230193642300930823072284
:104E500000215548FFF798F9002305930A2304938E
:104E60000A2303930A2302936423019300230093EC
:104E70000623002240F201614C48FFF7B1F90023FC
:104E800005934FF6FF7304930023039300230293CB
:104E9000012301936423009310231F22102144480F
:104EA000FFF746F900230593FF23049300230393A0
:104EB00000230293012301936423009308230F220C
:104EC00008213C48FFF760F9002305934FF6FF7374
:104ED000049300230393002302930123019364238B
:104EE000009310232F2220213348FFF721F90023BC
:104EF0000593FF23049300230393002302930123CC
:104F00000193642300930823072200212B48FFF715
:104F10003BF900230593FF2304930023039300230D
:104F20000293012301936423009308233722302145
:104F30002348FFF729F9002305930A2304930A2342
:104F400003930A230293642301930023009307230E
:104F500000224FF4C4611B48FFF742F90023059378
:104F60004FF6FF730493002303930023029301235E
:104F70000193642328E000BF80410020A841002065
:104F8000D841002000420020304200205042002042
:104F90007842002098420020C0420020E0420020D9
:104FA0001043002038430020684300209043002035
:104FB000B0430020E0430020084400203844002093
:104FC0006044002088440020009310231F221021F9
:104FD000B848FFF7ADF800230593FF23049300239F
:104FE0000393002302930123019364230093082376
:104FF0000F220821B048FFF7C7F8002305934FF6AA
:10500000FF7304930023039300230293012301936E
:105010006423009310232F222021A848FFF788F84B
:1050200000230593FF23049300230393002302939B
:105030000123019364230093082307220021A04841
:10504000FFF7A2F8002305930A2304930A2303938E
:105050000A23029364230193002300930623002272
:1050600040F225619748FFF7BBF8002305934FF600
:10507000FF730493002303930023029301230193FE
:105080006423009310231F2210218F48FFF750F84C
:1050900000230593FF23049300230393002302932B
:1050A000012301936423009308230F2208218748DA
:1050B000FFF76AF8002305934FF6FF73049300236C
:1050C000039300230293012301936423009310238D
:1050D0002F2220217E48FFF72BF800230593FF2382
:1050E0000493002303930023029301230193642379
:1050F00000930823072200217648FFF745F8002394
:1051000005930A2304930A2303930A230293642337
:105110000193002300930623002240F232616E487F
:10512000FFF75EF8002305934FF6FF730493002307
:10513000039300230293012301936423009310231C
:105140001F2210216548FEF7F3FF00230593FF237C
:105150000493002303930023029301230193642308
:10516000009308230F2208215D48FFF70DF8002364
:1051700005934FF6FF7304930023039300230293D8
:10518000012301936423009310232F2220215548EB
:10519000FEF7CEFF00230593FF2304930023039320
:1051A0000023029301230193642300930823072221
:1051B00000214D48FEF7E8FF002305934FF6FF73EB
:1051C0000493002303930023029301230193642398
:1051D000009310233F2230214448FEF7A9FF00230B
:1051E00005930A2304930A2303930A230293642357
:1051F0000193002300930823002240F231613C48D0
:10520000FEF7EEFF002305934FF6FF730493002390
:10521000039300230293012301936423009310233B
:105220001F2210213348FEF783FF00230593FF233D
:105230000493002303930023029301230193642327
:10524000009308230F2208212B48FEF79DFF00231F
:1052500005934FF6FF7304930023039300230293F7
:10526000012301936423009310232F22202123483C
:10527000FEF75EFF00230593FF23049300230393AF
:105280000023029301230193642300930823072240
:1052900000211B48FEF778FF002305930A2304939F
:1052A0000A2303930A2302936423019300230093A8
:1052B00028E000BFA8440020D8440020004500207A
:1052C000304500205845002078450020A8450020A2
:1052D000D0450020004600202846002048460020F7
:1052E00078460020A0460020D0460020F846002046
:1052F000284700204847002078470020A04700208A
:10530000D0470020062300224FF4C061A148FEF7D9
:1053100067FF002305934FF6FF7304930023039365
:1053200000230293012301936423009310231F227F
:1053300010219948FEF7FCFE00230593FF230493F8
:10534000002303930023029301230193642300931A
:1053500008230F2208219148FEF716FF002305932A
:105360004FF6FF730493002303930023029301235A
:1053700001936423009310232F2220218848FEF7F5
:10538000D7FE00230593FF230493002303930023F8
:105390000293012301936423009308230722002131
:1053A0008048FEF7F1FE00230593FF2304930023BA
:1053B00003930023029301230193642300930823A2
:1053C000372230217848FEF7DFFE002305930A23B9
:1053D00004930A2303930A23029364230193002373
:1053E00000930723002240F221617048FEF7F8FE87
:1053F000002305934FF6FF730493002303930023C8
:105400000293012301936423009310231F22102190
:105410006748FEF78DFE00230593FF2304930023C6
:105420000393002302930123019364230093082331
:105430000F2208215F48FEF7A7FE002305934FF6D1
:10544000FF7304930023039300230293012301932A
:105450006423009310232F2220215748FEF768FE73
:1054600000230593FF230493002303930023029357
:1054700001230193642300930823072200214F484E
:10548000FEF782FE002305930A2304930A23039365
:105490000A2302936423019300230093062300222E
:1054A00040F233614648FEF79BFE002305934FF61A
:1054B000FF730493002303930023029301230193BA
:1054C0006423009310231F2210213E48FEF730FE74
:1054D00000230593FF2304930023039300230293E7
:1054E000012301936423009308230F2208213648E7
:1054F000FEF74AFE002305934FF6FF730493002343
:105500000393002302930123019364230093102348
:105510002F2220212D48FEF70BFE00230593FF23A9
:105520000493002303930023029301230193642334
:1055300000930823072200212548FEF725FE0023BB
:1055400005934FF6FF730493002303930023029304
:10555000012301936423009310233F2230211D482F
:10556000FEF7E6FD002305930A2304930A23039321
:105570000A2302936423019300230093082300224B
:105580004FF4C6611448FEF72BFE00BF0837BD4636
:1055900080BD00BFF8470020184800204848002080
:1055A00070480020A0480020C8480020F048002093
:1055B00010490020404900206849002098490020F7
:1055C000C0490020E0490020104A0020384A00204D
:1055D000684A0020904A0020C04A002080B500AFF1
:1055E0004FF6FF710120FFF797F980BD80B483B0BB
:1055F00000AF78607B6800221A807B6800225A80A6
:105600007B6800221A717B6818460C37BD465DF82E
:10561000047B704780B485B000AFF860084611463F
:105620001A4603467B810B463B811346FB71FB68A0
:105630007A891A80FB683A895A80FB68FA791A716C
:10564000FB6818461437BD465DF8047B704780B48C
:1056500085B000AFF860084611461A4603467B81C4
:105660000B463B811346FB71FB687A891A80FB6805
:105670003A895A80FB68FA791A7100BF1437BD461F
:105680005DF8047B704780B483B000AF78607B68BE
:105690001B8818460C37BD465DF8047B704780B404
:1056A00083B000AF78607B685B8818460C37BD46D6
:1056B0005DF8047B704780B483B000AF78607B688E
:1056C0001B7918460C37BD465DF8047B704780B4E3
:1056D00083B000AF786039607B681A883B681B88AC
:1056E0009A420DD17B685A883B685B889A4207D101
:1056F0007B681A793B681B799A4201D1012300E04B
:10570000002318460C37BD465DF8047B704780B413
:1057100083B000AF786039603B681A887B681A8074
:105720003B685A887B685A803B681A797B681A7193
:1057300000BF0C37BD465DF8047B704790B585B05F
:1057400000AF07F1080383E803007A607B685C1C04
:1057500007F108031846FFF7AEFF0346237007F171
:1057600008031846FFF78FFF03461A467B6802338B
:10577000D2B21A7007F108031846FFF784FF0346F8
:105780001A127B680333D2B21A7007F10803184665
:10579000FFF785FF03461A467B680433D2B21A70BE
:1057A00007F108031846FFF77AFF03461A127B68D1
:1057B0000533D2B21A7000BF1437BD4690BD80B514
:1057C00084B000AF786039607868FFF70FFF3B68FE
:1057D00001331B78FB733B6803331B781B021AB23F
:1057E0003B6802331B781BB213431BB2BB813B687F
:1057F00005331B781B021AB23B6804331B781BB2BB
:1058000013431BB27B81FB7B7A89B9897868FFF7E8
:105810001EFF00BF78681037BD4680BDF0B593B05D
:105820000EAF3B4683E8030035233B7207F10803C4
:105830001A463B4693E80300FFF780FF07F1080391
:105840001946134800F086FC124B1B881946124873
:10585000FEF73FFF10490E48FEF7F5FC0C4E0F4BCC
:1058600004AC1D460FCD0FC40FCD0FC495E8030047
:1058700084E803006C4606F110030FCB84E80F00A8
:1058800096E80F0000F0BAFB00BF1437BD46F0BD2C
:1058900088400020D04B002058400020F04A0020D3
:1058A000B0B58AB000AFFBF701FA00F035F800F0B0
:1058B0007BF900F0F9F800F037F900F0B1F800F0EA
:1058C0009BF9114B07F114041D460FCD0FC42B6833
:1058D000236007F1140300211846FDF780FA024601
:1058E0000A4B1A600A4B3C461D460FCD0FC42B686D
:1058F00023603B4600211846FDF771FA0246054B2E
:105900001A60FDF765FAFEE7B0660008404B00201C
:10591000CC660008444B002080B594B000AF002353
:105920007B603B4B1B6C3A4A43F080531364384B0B
:105930001B6C03F080537B607B6800233B60354B1E
:105940001B68344A43F440431360324B1B6803F432
:1059500040433B603B680223FB610123BB62102391
:10596000FB6202237B630023BB630823FB6390235A
:105970003B6402237B640223BB640223FB6407F1C4
:105980001C031846FCF774FD0346002B14BF0123CB
:105990000023DBB2002B04D04FF488711E4800F0C6
:1059A000D3FB0F23BB600223FB6000233B614FF45A
:1059B000A0537B614FF4A053BB6107F1080304219E
:1059C0001846FCF7CFFA0346002B14BF012300232F
:1059D000DBB2002B04D04FF48F710F4800F0B4FB02
:1059E000FCF7A2FB02460D4BA3FB02239B091846C2
:1059F000FCF7FDF80420FCF707F900220F214FF017
:105A0000FF30FCF7CAF800BF5037BD4680BD00BF6D
:105A10000038024000700040E0660008D34D62107C
:105A200080B500AF002205211320FCF7B6F8132043
:105A3000FCF7CFF8002205211420FCF7AEF8142063
:105A4000FCF7C7F8002205211520FCF7A6F8152061
:105A5000FCF7BFF8002205211620FCF79EF816205F
:105A6000FCF7B7F8002205213F20FCF796F83F200D
:105A7000FCF7AFF8002205214020FCF78EF840200B
:105A8000FCF7A7F8002205214120FCF786F8412009
:105A9000FCF79FF8002205214220FCF77EF8422007
:105AA000FCF797F800BF80BD80B500AF1B4B1C4AC8
:105AB0001A601A4B03225A60184B00229A60174B47
:105AC0000022DA60154B4FF4E0221A61134B4FF4B9
:105AD00000125A61114B00221A76104B01225A769D
